{
  "contractName": "Auth",
  "abi": [
    {
      "inputs": [],
      "stateMutability": "nonpayable",
      "type": "constructor"
    },
    {
      "anonymous": false,
      "inputs": [
        {
          "indexed": false,
          "internalType": "address",
          "name": "add",
          "type": "address"
        },
        {
          "indexed": false,
          "internalType": "string",
          "name": "username",
          "type": "string"
        },
        {
          "indexed": false,
          "internalType": "string",
          "name": "email",
          "type": "string"
        },
        {
          "indexed": false,
          "internalType": "string",
          "name": "password",
          "type": "string"
        }
      ],
      "name": "AdminCreated",
      "type": "event"
    },
    {
      "anonymous": false,
      "inputs": [
        {
          "indexed": false,
          "internalType": "address",
          "name": "add",
          "type": "address"
        },
        {
          "indexed": false,
          "internalType": "string",
          "name": "username",
          "type": "string"
        },
        {
          "indexed": false,
          "internalType": "string",
          "name": "email",
          "type": "string"
        },
        {
          "indexed": false,
          "internalType": "string",
          "name": "password",
          "type": "string"
        }
      ],
      "name": "AssistantCreated",
      "type": "event"
    },
    {
      "anonymous": false,
      "inputs": [
        {
          "indexed": false,
          "internalType": "address",
          "name": "add",
          "type": "address"
        },
        {
          "indexed": false,
          "internalType": "string",
          "name": "username",
          "type": "string"
        },
        {
          "indexed": false,
          "internalType": "string",
          "name": "email",
          "type": "string"
        },
        {
          "indexed": false,
          "internalType": "string",
          "name": "password",
          "type": "string"
        }
      ],
      "name": "DoctorCreated",
      "type": "event"
    },
    {
      "inputs": [],
      "name": "adminAddress",
      "outputs": [
        {
          "internalType": "address",
          "name": "",
          "type": "address"
        }
      ],
      "stateMutability": "view",
      "type": "function",
      "constant": true
    },
    {
      "inputs": [],
      "name": "adminCreated",
      "outputs": [
        {
          "internalType": "bool",
          "name": "",
          "type": "bool"
        }
      ],
      "stateMutability": "view",
      "type": "function",
      "constant": true
    },
    {
      "inputs": [],
      "name": "adminEmail",
      "outputs": [
        {
          "internalType": "string",
          "name": "",
          "type": "string"
        }
      ],
      "stateMutability": "view",
      "type": "function",
      "constant": true
    },
    {
      "inputs": [],
      "name": "adminPassword",
      "outputs": [
        {
          "internalType": "string",
          "name": "",
          "type": "string"
        }
      ],
      "stateMutability": "view",
      "type": "function",
      "constant": true
    },
    {
      "inputs": [],
      "name": "adminUsername",
      "outputs": [
        {
          "internalType": "string",
          "name": "",
          "type": "string"
        }
      ],
      "stateMutability": "view",
      "type": "function",
      "constant": true
    },
    {
      "inputs": [
        {
          "internalType": "uint256",
          "name": "",
          "type": "uint256"
        }
      ],
      "name": "assistantAddresses",
      "outputs": [
        {
          "internalType": "address",
          "name": "",
          "type": "address"
        }
      ],
      "stateMutability": "view",
      "type": "function",
      "constant": true
    },
    {
      "inputs": [],
      "name": "assistantCreated",
      "outputs": [
        {
          "internalType": "bool",
          "name": "",
          "type": "bool"
        }
      ],
      "stateMutability": "view",
      "type": "function",
      "constant": true
    },
    {
      "inputs": [
        {
          "internalType": "string",
          "name": "",
          "type": "string"
        }
      ],
      "name": "assistantsList",
      "outputs": [
        {
          "internalType": "address",
          "name": "add",
          "type": "address"
        },
        {
          "internalType": "string",
          "name": "username",
          "type": "string"
        },
        {
          "internalType": "string",
          "name": "email",
          "type": "string"
        },
        {
          "internalType": "string",
          "name": "password",
          "type": "string"
        }
      ],
      "stateMutability": "view",
      "type": "function",
      "constant": true
    },
    {
      "inputs": [
        {
          "internalType": "uint256",
          "name": "",
          "type": "uint256"
        }
      ],
      "name": "doctorAddresses",
      "outputs": [
        {
          "internalType": "address",
          "name": "",
          "type": "address"
        }
      ],
      "stateMutability": "view",
      "type": "function",
      "constant": true
    },
    {
      "inputs": [],
      "name": "doctorCreated",
      "outputs": [
        {
          "internalType": "bool",
          "name": "",
          "type": "bool"
        }
      ],
      "stateMutability": "view",
      "type": "function",
      "constant": true
    },
    {
      "inputs": [
        {
          "internalType": "string",
          "name": "",
          "type": "string"
        }
      ],
      "name": "doctorsList",
      "outputs": [
        {
          "internalType": "address",
          "name": "add",
          "type": "address"
        },
        {
          "internalType": "string",
          "name": "username",
          "type": "string"
        },
        {
          "internalType": "string",
          "name": "email",
          "type": "string"
        },
        {
          "internalType": "string",
          "name": "password",
          "type": "string"
        }
      ],
      "stateMutability": "view",
      "type": "function",
      "constant": true
    },
    {
      "inputs": [],
      "name": "getAdminAddress",
      "outputs": [
        {
          "internalType": "address",
          "name": "",
          "type": "address"
        }
      ],
      "stateMutability": "view",
      "type": "function",
      "constant": true
    },
    {
      "inputs": [],
      "name": "getEmailAdmin",
      "outputs": [
        {
          "internalType": "string",
          "name": "",
          "type": "string"
        }
      ],
      "stateMutability": "view",
      "type": "function",
      "constant": true
    },
    {
      "inputs": [],
      "name": "getPasswordAdmin",
      "outputs": [
        {
          "internalType": "string",
          "name": "",
          "type": "string"
        }
      ],
      "stateMutability": "view",
      "type": "function",
      "constant": true
    },
    {
      "inputs": [
        {
          "internalType": "address",
          "name": "_add",
          "type": "address"
        },
        {
          "internalType": "string",
          "name": "_username",
          "type": "string"
        },
        {
          "internalType": "string",
          "name": "_email",
          "type": "string"
        },
        {
          "internalType": "string",
          "name": "_password",
          "type": "string"
        }
      ],
      "name": "createDoctor",
      "outputs": [],
      "stateMutability": "nonpayable",
      "type": "function"
    },
    {
      "inputs": [],
      "name": "getDoctorsList",
      "outputs": [
        {
          "internalType": "address[]",
          "name": "",
          "type": "address[]"
        }
      ],
      "stateMutability": "view",
      "type": "function",
      "constant": true
    },
    {
      "inputs": [
        {
          "internalType": "string",
          "name": "_email",
          "type": "string"
        }
      ],
      "name": "getDoctorAddress",
      "outputs": [
        {
          "internalType": "address",
          "name": "",
          "type": "address"
        }
      ],
      "stateMutability": "view",
      "type": "function",
      "constant": true
    },
    {
      "inputs": [
        {
          "internalType": "string",
          "name": "_email",
          "type": "string"
        }
      ],
      "name": "getDoctorPassword",
      "outputs": [
        {
          "internalType": "string",
          "name": "",
          "type": "string"
        }
      ],
      "stateMutability": "view",
      "type": "function",
      "constant": true
    },
    {
      "inputs": [
        {
          "internalType": "address",
          "name": "_add",
          "type": "address"
        },
        {
          "internalType": "string",
          "name": "_username",
          "type": "string"
        },
        {
          "internalType": "string",
          "name": "_email",
          "type": "string"
        },
        {
          "internalType": "string",
          "name": "_password",
          "type": "string"
        }
      ],
      "name": "createAssistant",
      "outputs": [],
      "stateMutability": "nonpayable",
      "type": "function"
    },
    {
      "inputs": [
        {
          "internalType": "string",
          "name": "_email",
          "type": "string"
        }
      ],
      "name": "getAssistantAddress",
      "outputs": [
        {
          "internalType": "address",
          "name": "",
          "type": "address"
        }
      ],
      "stateMutability": "view",
      "type": "function",
      "constant": true
    },
    {
      "inputs": [
        {
          "internalType": "string",
          "name": "_email",
          "type": "string"
        }
      ],
      "name": "getAssistantPassword",
      "outputs": [
        {
          "internalType": "string",
          "name": "",
          "type": "string"
        }
      ],
      "stateMutability": "view",
      "type": "function",
      "constant": true
    },
    {
      "inputs": [],
      "name": "getAssistantsList",
      "outputs": [
        {
          "internalType": "address[]",
          "name": "",
          "type": "address[]"
        }
      ],
      "stateMutability": "view",
      "type": "function",
      "constant": true
    }
  ],
  "bytecode": "0x60806040523480156200001157600080fd5b5073a598b97c46320cc45aee4110b715ba998a4d4e5a6000806101000a81548173ffffffffffffffffffffffffffffffffffffffff021916908373ffffffffffffffffffffffffffffffffffffffff1602179055506040518060400160405280600c81526020017f4d617269656d205475726b69000000000000000000000000000000000000000081525060019080519060200190620000b3929190620001d3565b506040518060400160405280601581526020017f6d617269656d2e7475726b69406973696d672e746e00000000000000000000008152506002908051906020019062000101929190620001d3565b506040518060400160405280600981526020017f6d617269656d3132330000000000000000000000000000000000000000000000815250600390805190602001906200014f929190620001d3565b506001600060146101000a81548160ff0219169083151502179055507f8e19ec4f98bc8faffafffa0475fcae88c9ae9f03ea6551af6b8c9fabd7349f2b60008054906101000a900473ffffffffffffffffffffffffffffffffffffffff16600160026003604051620001c59493929190620003df565b60405180910390a162000441565b828054620001e190620002f7565b90600052602060002090601f01602090048101928262000205576000855562000251565b82601f106200022057805160ff191683800117855562000251565b8280016001018555821562000251579182015b828111156200025057825182559160200191906001019062000233565b5b50905062000260919062000264565b5090565b5b808211156200027f57600081600090555060010162000265565b5090565b600073ffffffffffffffffffffffffffffffffffffffff82169050919050565b6000620002b08262000283565b9050919050565b620002c281620002a3565b82525050565b7f4e487b7100000000000000000000000000000000000000000000000000000000600052602260045260246000fd5b600060028204905060018216806200031057607f821691505b60208210811415620003275762000326620002c8565b5b50919050565b600082825260208201905092915050565b60008190508160005260206000209050919050565b600081546200036281620002f7565b6200036e81866200032d565b945060018216600081146200038c57600181146200039f57620003d6565b60ff1983168652602086019350620003d6565b620003aa856200033e565b60005b83811015620003ce57815481890152600182019150602081019050620003ad565b808801955050505b50505092915050565b6000608082019050620003f66000830187620002b7565b81810360208301526200040a818662000353565b9050818103604083015262000420818562000353565b9050818103606083015262000436818462000353565b905095945050505050565b611ba580620004516000396000f3fe608060405234801561001057600080fd5b50600436106101425760003560e01c80638679abf9116100b8578063bad1a0a81161007c578063bad1a0a814610380578063c93bcf64146103b3578063c95171ae146103e3578063e098e76c14610401578063e5ae1b221461041f578063fc6f94681461044f57610142565b80638679abf9146102c857806399ac0878146102e4578063ad9c63dd14610302578063b2e6b91214610332578063b663922f1461035057610142565b80634fb064cc1161010a5780634fb064cc146102015780636b49eb0f1461021f5780636c6fb4481461023d5780636cf7af481461025b57806378e94344146102775780637e4eecd51461029557610142565b806308893adb1461014757806315ff99f1146101655780633ba51e7c146101835780633e3e6caa146101b35780634c1cce74146101e3575b600080fd5b61014f61046d565b60405161015c919061149b565b60405180910390f35b61016d610480565b60405161017a919061149b565b60405180910390f35b61019d60048036038101906101989190611500565b610493565b6040516101aa919061156e565b60405180910390f35b6101cd60048036038101906101c89190611500565b6104d2565b6040516101da919061156e565b60405180910390f35b6101eb610511565b6040516101f89190611622565b60405180910390f35b61020961059f565b6040516102169190611622565b60405180910390f35b610227610631565b6040516102349190611622565b60405180910390f35b6102456106bf565b6040516102529190611622565b60405180910390f35b610275600480360381019061027091906117a5565b61074d565b005b61027f610992565b60405161028c9190611622565b60405180910390f35b6102af60048036038101906102aa9190611860565b610a24565b6040516102bf94939291906118a9565b60405180910390f35b6102e260048036038101906102dd91906117a5565b610c22565b005b6102ec610e67565b6040516102f9919061149b565b60405180910390f35b61031c60048036038101906103179190611860565b610e7a565b604051610329919061156e565b60405180910390f35b61033a610ec5565b604051610347919061156e565b60405180910390f35b61036a60048036038101906103659190611860565b610eee565b604051610377919061156e565b60405180910390f35b61039a60048036038101906103959190611860565b610f39565b6040516103aa94939291906118a9565b60405180910390f35b6103cd60048036038101906103c89190611860565b611137565b6040516103da9190611622565b60405180910390f35b6103eb6111ea565b6040516103f891906119c1565b60405180910390f35b610409611278565b60405161041691906119c1565b60405180910390f35b61043960048036038101906104349190611860565b611306565b6040516104469190611622565b60405180910390f35b6104576113b9565b604051610464919061156e565b60405180910390f35b600060149054906101000a900460ff1681565b600460009054906101000a900460ff1681565b600681815481106104a357600080fd5b906000526020600020016000915054906101000a900473ffffffffffffffffffffffffffffffffffffffff1681565b600981815481106104e257600080fd5b906000526020600020016000915054906101000a900473ffffffffffffffffffffffffffffffffffffffff1681565b6002805461051e90611a12565b80601f016020809104026020016040519081016040528092919081815260200182805461054a90611a12565b80156105975780601f1061056c57610100808354040283529160200191610597565b820191906000526020600020905b81548152906001019060200180831161057a57829003601f168201915b505050505081565b6060600380546105ae90611a12565b80601f01602080910402602001604051908101604052809291908181526020018280546105da90611a12565b80156106275780601f106105fc57610100808354040283529160200191610627565b820191906000526020600020905b81548152906001019060200180831161060a57829003601f168201915b5050505050905090565b6003805461063e90611a12565b80601f016020809104026020016040519081016040528092919081815260200182805461066a90611a12565b80156106b75780601f1061068c576101008083540402835291602001916106b7565b820191906000526020600020905b81548152906001019060200180831161069a57829003601f168201915b505050505081565b600180546106cc90611a12565b80601f01602080910402602001604051908101604052809291908181526020018280546106f890611a12565b80156107455780601f1061071a57610100808354040283529160200191610745565b820191906000526020600020905b81548152906001019060200180831161072857829003601f168201915b505050505081565b60008054906101000a900473ffffffffffffffffffffffffffffffffffffffff1673ffffffffffffffffffffffffffffffffffffffff163373ffffffffffffffffffffffffffffffffffffffff16146107db576040517f08c379a00000000000000000000000000000000000000000000000000000000081526004016107d290611a90565b60405180910390fd5b60405180608001604052808573ffffffffffffffffffffffffffffffffffffffff168152602001848152602001838152602001828152506005836040516108229190611aec565b908152602001604051809103902060008201518160000160006101000a81548173ffffffffffffffffffffffffffffffffffffffff021916908373ffffffffffffffffffffffffffffffffffffffff16021790555060208201518160010190805190602001906108939291906113dd565b5060408201518160020190805190602001906108b09291906113dd565b5060608201518160030190805190602001906108cd9291906113dd565b509050506006849080600181540180825580915050600190039060005260206000200160009091909190916101000a81548173ffffffffffffffffffffffffffffffffffffffff021916908373ffffffffffffffffffffffffffffffffffffffff1602179055506001600460006101000a81548160ff0219169083151502179055507f78b9e9f390d08e93b17ba8d2960f65cdf3e7ef3d504758b9b27cd76cc4c211b78484848460405161098494939291906118a9565b60405180910390a150505050565b6060600280546109a190611a12565b80601f01602080910402602001604051908101604052809291908181526020018280546109cd90611a12565b8015610a1a5780601f106109ef57610100808354040283529160200191610a1a565b820191906000526020600020905b8154815290600101906020018083116109fd57829003601f168201915b5050505050905090565b6008818051602081018201805184825260208301602085012081835280955050505050506000915090508060000160009054906101000a900473ffffffffffffffffffffffffffffffffffffffff1690806001018054610a8390611a12565b80601f0160208091040260200160405190810160405280929190818152602001828054610aaf90611a12565b8015610afc5780601f10610ad157610100808354040283529160200191610afc565b820191906000526020600020905b815481529060010190602001808311610adf57829003601f168201915b505050505090806002018054610b1190611a12565b80601f0160208091040260200160405190810160405280929190818152602001828054610b3d90611a12565b8015610b8a5780601f10610b5f57610100808354040283529160200191610b8a565b820191906000526020600020905b815481529060010190602001808311610b6d57829003601f168201915b505050505090806003018054610b9f90611a12565b80601f0160208091040260200160405190810160405280929190818152602001828054610bcb90611a12565b8015610c185780601f10610bed57610100808354040283529160200191610c18565b820191906000526020600020905b815481529060010190602001808311610bfb57829003601f168201915b5050505050905084565b60008054906101000a900473ffffffffffffffffffffffffffffffffffffffff1673ffffffffffffffffffffffffffffffffffffffff163373ffffffffffffffffffffffffffffffffffffffff1614610cb0576040517f08c379a0000000000000000000000000000000000000000000000000000000008152600401610ca790611b4f565b60405180910390fd5b60405180608001604052808573ffffffffffffffffffffffffffffffffffffffff16815260200184815260200183815260200182815250600883604051610cf79190611aec565b908152602001604051809103902060008201518160000160006101000a81548173ffffffffffffffffffffffffffffffffffffffff021916908373ffffffffffffffffffffffffffffffffffffffff1602179055506020820151816001019080519060200190610d689291906113dd565b506040820151816002019080519060200190610d859291906113dd565b506060820151816003019080519060200190610da29291906113dd565b509050506009849080600181540180825580915050600190039060005260206000200160009091909190916101000a81548173ffffffffffffffffffffffffffffffffffffffff021916908373ffffffffffffffffffffffffffffffffffffffff1602179055506001600760006101000a81548160ff0219169083151502179055507f44c3b83b8c3084a651a9135aef1ec9a594cbc0e628f1e7d366173426eeb7a04584848484604051610e5994939291906118a9565b60405180910390a150505050565b600760009054906101000a900460ff1681565b6000600582604051610e8c9190611aec565b908152602001604051809103902060000160009054906101000a900473ffffffffffffffffffffffffffffffffffffffff169050919050565b60008060009054906101000a900473ffffffffffffffffffffffffffffffffffffffff16905090565b6000600882604051610f009190611aec565b908152602001604051809103902060000160009054906101000a900473ffffffffffffffffffffffffffffffffffffffff169050919050565b6005818051602081018201805184825260208301602085012081835280955050505050506000915090508060000160009054906101000a900473ffffffffffffffffffffffffffffffffffffffff1690806001018054610f9890611a12565b80601f0160208091040260200160405190810160405280929190818152602001828054610fc490611a12565b80156110115780601f10610fe657610100808354040283529160200191611011565b820191906000526020600020905b815481529060010190602001808311610ff457829003601f168201915b50505050509080600201805461102690611a12565b80601f016020809104026020016040519081016040528092919081815260200182805461105290611a12565b801561109f5780601f106110745761010080835404028352916020019161109f565b820191906000526020600020905b81548152906001019060200180831161108257829003601f168201915b5050505050908060030180546110b490611a12565b80601f01602080910402602001604051908101604052809291908181526020018280546110e090611a12565b801561112d5780601f106111025761010080835404028352916020019161112d565b820191906000526020600020905b81548152906001019060200180831161111057829003601f168201915b5050505050905084565b60606005826040516111499190611aec565b9081526020016040518091039020600301805461116590611a12565b80601f016020809104026020016040519081016040528092919081815260200182805461119190611a12565b80156111de5780601f106111b3576101008083540402835291602001916111de565b820191906000526020600020905b8154815290600101906020018083116111c157829003601f168201915b50505050509050919050565b6060600680548060200260200160405190810160405280929190818152602001828054801561126e57602002820191906000526020600020905b8160009054906101000a900473ffffffffffffffffffffffffffffffffffffffff1673ffffffffffffffffffffffffffffffffffffffff1681526020019060010190808311611224575b5050505050905090565b606060098054806020026020016040519081016040528092919081815260200182805480156112fc57602002820191906000526020600020905b8160009054906101000a900473ffffffffffffffffffffffffffffffffffffffff1673ffffffffffffffffffffffffffffffffffffffff16815260200190600101908083116112b2575b5050505050905090565b60606008826040516113189190611aec565b9081526020016040518091039020600301805461133490611a12565b80601f016020809104026020016040519081016040528092919081815260200182805461136090611a12565b80156113ad5780601f10611382576101008083540402835291602001916113ad565b820191906000526020600020905b81548152906001019060200180831161139057829003601f168201915b50505050509050919050565b60008054906101000a900473ffffffffffffffffffffffffffffffffffffffff1681565b8280546113e990611a12565b90600052602060002090601f01602090048101928261140b5760008555611452565b82601f1061142457805160ff1916838001178555611452565b82800160010185558215611452579182015b82811115611451578251825591602001919060010190611436565b5b50905061145f9190611463565b5090565b5b8082111561147c576000816000905550600101611464565b5090565b60008115159050919050565b61149581611480565b82525050565b60006020820190506114b0600083018461148c565b92915050565b6000604051905090565b600080fd5b600080fd5b6000819050919050565b6114dd816114ca565b81146114e857600080fd5b50565b6000813590506114fa816114d4565b92915050565b600060208284031215611516576115156114c0565b5b6000611524848285016114eb565b91505092915050565b600073ffffffffffffffffffffffffffffffffffffffff82169050919050565b60006115588261152d565b9050919050565b6115688161154d565b82525050565b6000602082019050611583600083018461155f565b92915050565b600081519050919050565b600082825260208201905092915050565b60005b838110156115c35780820151818401526020810190506115a8565b838111156115d2576000848401525b50505050565b6000601f19601f8301169050919050565b60006115f482611589565b6115fe8185611594565b935061160e8185602086016115a5565b611617816115d8565b840191505092915050565b6000602082019050818103600083015261163c81846115e9565b905092915050565b61164d8161154d565b811461165857600080fd5b50565b60008135905061166a81611644565b92915050565b600080fd5b600080fd5b7f4e487b7100000000000000000000000000000000000000000000000000000000600052604160045260246000fd5b6116b2826115d8565b810181811067ffffffffffffffff821117156116d1576116d061167a565b5b80604052505050565b60006116e46114b6565b90506116f082826116a9565b919050565b600067ffffffffffffffff8211156117105761170f61167a565b5b611719826115d8565b9050602081019050919050565b82818337600083830152505050565b6000611748611743846116f5565b6116da565b90508281526020810184848401111561176457611763611675565b5b61176f848285611726565b509392505050565b600082601f83011261178c5761178b611670565b5b813561179c848260208601611735565b91505092915050565b600080600080608085870312156117bf576117be6114c0565b5b60006117cd8782880161165b565b945050602085013567ffffffffffffffff8111156117ee576117ed6114c5565b5b6117fa87828801611777565b935050604085013567ffffffffffffffff81111561181b5761181a6114c5565b5b61182787828801611777565b925050606085013567ffffffffffffffff811115611848576118476114c5565b5b61185487828801611777565b91505092959194509250565b600060208284031215611876576118756114c0565b5b600082013567ffffffffffffffff811115611894576118936114c5565b5b6118a084828501611777565b91505092915050565b60006080820190506118be600083018761155f565b81810360208301526118d081866115e9565b905081810360408301526118e481856115e9565b905081810360608301526118f881846115e9565b905095945050505050565b600081519050919050565b600082825260208201905092915050565b6000819050602082019050919050565b6119388161154d565b82525050565b600061194a838361192f565b60208301905092915050565b6000602082019050919050565b600061196e82611903565b611978818561190e565b93506119838361191f565b8060005b838110156119b457815161199b888261193e565b97506119a683611956565b925050600181019050611987565b5085935050505092915050565b600060208201905081810360008301526119db8184611963565b905092915050565b7f4e487b7100000000000000000000000000000000000000000000000000000000600052602260045260246000fd5b60006002820490506001821680611a2a57607f821691505b60208210811415611a3e57611a3d6119e3565b5b50919050565b7f4f6e6c792061646d696e2063616e2063726561746520646f63746f7200000000600082015250565b6000611a7a601c83611594565b9150611a8582611a44565b602082019050919050565b60006020820190508181036000830152611aa981611a6d565b9050919050565b600081905092915050565b6000611ac682611589565b611ad08185611ab0565b9350611ae08185602086016115a5565b80840191505092915050565b6000611af88284611abb565b915081905092915050565b7f4f6e6c792061646d696e2063616e2063726561746520617373697374616e7400600082015250565b6000611b39601f83611594565b9150611b4482611b03565b602082019050919050565b60006020820190508181036000830152611b6881611b2c565b905091905056fea26469706673582212209e6b6fb08d9905b5a2b70846878696a0eea18ababd98fcb4bfaaf4a83aec497d64736f6c634300080b0033",
  "immutableReferences": {},
  "source": "// SPDX-License-Identifier: MIT\r\n\r\npragma solidity >=0.4.22 <0.9.0;\r\n\r\ncontract Auth {\r\n\r\n    address public adminAddress;\r\n    bool public adminCreated;\r\n    string public adminUsername;\r\n    string public adminEmail;\r\n    string public adminPassword;\r\n\r\n    event AdminCreated(\r\n        address add,\r\n        string username,\r\n        string email,\r\n        string password\r\n    );\r\n\r\n    constructor() {\r\n        adminAddress = 0xA598B97C46320Cc45AeE4110B715BA998A4D4e5a;\r\n        adminUsername = \"Mariem Turki\";\r\n        adminEmail = \"mariem.turki@isimg.tn\";\r\n        adminPassword = \"mariem123\";\r\n        adminCreated = true;\r\n        emit AdminCreated(\r\n            adminAddress,\r\n            adminUsername,\r\n            adminEmail,\r\n            adminPassword\r\n        );\r\n    }\r\n\r\n    function getAdminAddress() public view returns (address) {\r\n        return adminAddress;\r\n    }\r\n\r\n    function getEmailAdmin() public view returns (string memory) {\r\n        return adminEmail;\r\n    }\r\n\r\n    function getPasswordAdmin() public view returns (string memory) {\r\n        return adminPassword;\r\n    }\r\n\r\n\r\n    bool public doctorCreated;\r\n\r\n    struct Doctor {\r\n        address add;\r\n        string username;\r\n        string email;\r\n        string password;\r\n    }\r\n    mapping(string => Doctor) public doctorsList;\r\n    address[] public doctorAddresses;\r\n\r\n    event DoctorCreated(\r\n        address add,\r\n        string username,\r\n        string email,\r\n        string password\r\n    );\r\n\r\n    function createDoctor(address _add, string memory _username, string memory _email, string memory _password) public {\r\n        require(msg.sender == adminAddress, \"Only admin can create doctor\");\r\n        doctorsList[_email] = Doctor(_add, _username, _email, _password);\r\n        doctorAddresses.push(_add);\r\n        doctorCreated = true;\r\n        emit DoctorCreated(_add, _username, _email, _password);\r\n    }\r\n   function getDoctorsList() public view returns (address[] memory) {\r\n        return doctorAddresses;\r\n    }\r\n   function getDoctorAddress(string memory _email) public view returns (address) {\r\n    return doctorsList[_email].add;\r\n}\r\n\r\nfunction getDoctorPassword(string memory _email) public view returns (string memory) {\r\n    return doctorsList[_email].password;\r\n}\r\n\r\n \r\n    bool public assistantCreated;\r\n\r\nstruct Assistant {\r\n    address add;\r\n    string username;\r\n    string email;\r\n    string password;\r\n}\r\n\r\nmapping(string => Assistant) public assistantsList;\r\naddress[] public assistantAddresses;\r\n\r\nevent AssistantCreated(\r\n    address add,\r\n    string username,\r\n    string email,\r\n    string password\r\n);\r\n\r\nfunction createAssistant(address _add, string memory _username, string memory _email, string memory _password) public {\r\n    require(msg.sender == adminAddress, \"Only admin can create assistant\");\r\n    assistantsList[_email] = Assistant(_add, _username, _email, _password);\r\n    assistantAddresses.push(_add);\r\n    assistantCreated = true;\r\n    emit AssistantCreated(_add, _username, _email, _password);\r\n}\r\n\r\nfunction getAssistantAddress(string memory _email) public view returns (address) {\r\n    return assistantsList[_email].add;\r\n}\r\n\r\n\r\nfunction getAssistantPassword(string memory _email) public view returns (string memory) {\r\n    return assistantsList[_email].password;\r\n}\r\n\r\nfunction getAssistantsList() public view returns (address[] memory) {\r\n    return assistantAddresses;\r\n}\r\n\r\n}\r\n",
  "sourcePath": "C:\\Users\\ASUS\\PFA6.0\\Model\\Blockchain\\contracts\\Auth.sol",
  "compiler": {
    "name": "solc",
    "version": "0.8.11+commit.d7f03943.Emscripten.clang"
  },
  "schemaVersion": "3.4.4",
  "updatedAt": "2024-04-05T16:32:05.717Z",
  "networkType": "ethereum",
  "devdoc": {
    "kind": "dev",
    "methods": {},
    "version": 1
  },
  "userdoc": {
    "kind": "user",
    "methods": {},
    "version": 1
  }
}