{
  "contractName": "Auth",
  "abi": [
    {
      "inputs": [],
      "stateMutability": "nonpayable",
      "type": "constructor"
    },
    {
      "anonymous": false,
      "inputs": [
        {
          "indexed": false,
          "internalType": "address",
          "name": "add",
          "type": "address"
        },
        {
          "indexed": false,
          "internalType": "string",
          "name": "username",
          "type": "string"
        },
        {
          "indexed": false,
          "internalType": "string",
          "name": "email",
          "type": "string"
        },
        {
          "indexed": false,
          "internalType": "string",
          "name": "password",
          "type": "string"
        },
        {
          "indexed": false,
          "internalType": "string",
          "name": "role",
          "type": "string"
        }
      ],
      "name": "UserCreated",
      "type": "event"
    },
    {
      "inputs": [],
      "name": "adminAddress",
      "outputs": [
        {
          "internalType": "address",
          "name": "",
          "type": "address"
        }
      ],
      "stateMutability": "view",
      "type": "function"
    },
    {
      "inputs": [],
      "name": "userCount",
      "outputs": [
        {
          "internalType": "uint256",
          "name": "",
          "type": "uint256"
        }
      ],
      "stateMutability": "view",
      "type": "function"
    },
    {
      "inputs": [
        {
          "internalType": "uint256",
          "name": "",
          "type": "uint256"
        }
      ],
      "name": "userList",
      "outputs": [
        {
          "internalType": "address",
          "name": "",
          "type": "address"
        }
      ],
      "stateMutability": "view",
      "type": "function"
    },
    {
      "inputs": [
        {
          "internalType": "string",
          "name": "",
          "type": "string"
        }
      ],
      "name": "usersList",
      "outputs": [
        {
          "internalType": "address",
          "name": "add",
          "type": "address"
        },
        {
          "internalType": "string",
          "name": "username",
          "type": "string"
        },
        {
          "internalType": "string",
          "name": "email",
          "type": "string"
        },
        {
          "internalType": "string",
          "name": "password",
          "type": "string"
        },
        {
          "internalType": "string",
          "name": "role",
          "type": "string"
        }
      ],
      "stateMutability": "view",
      "type": "function"
    },
    {
      "inputs": [],
      "name": "getAdminAddress",
      "outputs": [
        {
          "internalType": "address",
          "name": "",
          "type": "address"
        }
      ],
      "stateMutability": "view",
      "type": "function"
    },
    {
      "inputs": [
        {
          "internalType": "address",
          "name": "_add",
          "type": "address"
        },
        {
          "internalType": "string",
          "name": "_username",
          "type": "string"
        },
        {
          "internalType": "string",
          "name": "_email",
          "type": "string"
        },
        {
          "internalType": "string",
          "name": "_password",
          "type": "string"
        },
        {
          "internalType": "string",
          "name": "_role",
          "type": "string"
        }
      ],
      "name": "createUser",
      "outputs": [],
      "stateMutability": "nonpayable",
      "type": "function"
    }
  ],
  "bytecode": "0x6080604052600080553480156200001557600080fd5b50732c858a719fb1ded3efb6ed248ef93d53d3afbd7b600160006101000a81548173ffffffffffffffffffffffffffffffffffffffff021916908373ffffffffffffffffffffffffffffffffffffffff16021790555062000176600160009054906101000a900473ffffffffffffffffffffffffffffffffffffffff166040518060400160405280600c81526020017f4d617269656d205475726b6900000000000000000000000000000000000000008152506040518060400160405280601581526020017f6d617269656d2e7475726b69406973696d672e746e00000000000000000000008152506040518060400160405280600981526020017f6d617269656d31323300000000000000000000000000000000000000000000008152506040518060400160405280600581526020017f61646d696e0000000000000000000000000000000000000000000000000000008152506200017c60201b60201c565b620006bc565b60008081548092919062000190906200044c565b91905055506040518060a001604052808673ffffffffffffffffffffffffffffffffffffffff16815260200185815260200184815260200183815260200182815250600284604051620001e491906200051d565b908152602001604051809103902060008201518160000160006101000a81548173ffffffffffffffffffffffffffffffffffffffff021916908373ffffffffffffffffffffffffffffffffffffffff16021790555060208201518160010190805190602001906200025792919062000363565b5060408201518160020190805190602001906200027692919062000363565b5060608201518160030190805190602001906200029592919062000363565b506080820151816004019080519060200190620002b492919062000363565b509050506003859080600181540180825580915050600190039060005260206000200160009091909190916101000a81548173ffffffffffffffffffffffffffffffffffffffff021916908373ffffffffffffffffffffffffffffffffffffffff1602179055507f3a92f8dece62f9b29e9012bd5b5bab2adf3044a1ce972e3d36c0a0b50fb4f36c858585858560405162000354959493929190620005de565b60405180910390a15050505050565b828054620003719062000686565b90600052602060002090601f016020900481019282620003955760008555620003e1565b82601f10620003b057805160ff1916838001178555620003e1565b82800160010185558215620003e1579182015b82811115620003e0578251825591602001919060010190620003c3565b5b509050620003f09190620003f4565b5090565b5b808211156200040f576000816000905550600101620003f5565b5090565b7f4e487b7100000000000000000000000000000000000000000000000000000000600052601160045260246000fd5b6000819050919050565b6000620004598262000442565b91507fffffffffffffffffffffffffffffffffffffffffffffffffffffffffffffffff8214156200048f576200048e62000413565b5b600182019050919050565b600081519050919050565b600081905092915050565b60005b83811015620004d0578082015181840152602081019050620004b3565b83811115620004e0576000848401525b50505050565b6000620004f3826200049a565b620004ff8185620004a5565b935062000511818560208601620004b0565b80840191505092915050565b60006200052b8284620004e6565b915081905092915050565b600073ffffffffffffffffffffffffffffffffffffffff82169050919050565b6000620005638262000536565b9050919050565b620005758162000556565b82525050565b600082825260208201905092915050565b6000601f19601f8301169050919050565b6000620005aa826200049a565b620005b681856200057b565b9350620005c8818560208601620004b0565b620005d3816200058c565b840191505092915050565b600060a082019050620005f560008301886200056a565b81810360208301526200060981876200059d565b905081810360408301526200061f81866200059d565b905081810360608301526200063581856200059d565b905081810360808301526200064b81846200059d565b90509695505050505050565b7f4e487b7100000000000000000000000000000000000000000000000000000000600052602260045260246000fd5b600060028204905060018216806200069f57607f821691505b60208210811415620006b657620006b562000657565b5b50919050565b610cda80620006cc6000396000f3fe608060405234801561001057600080fd5b50600436106100625760003560e01c806307973ccf1461006757806343214fcb146100855780634cbce6ac146100a15780639f4216e8146100d5578063b2e6b91214610105578063fc6f946814610123575b600080fd5b61006f610141565b60405161007c91906106f7565b60405180910390f35b61009f600480360381019061009a91906108ca565b610147565b005b6100bb60048036038101906100b691906109b5565b610320565b6040516100cc959493929190610a95565b60405180910390f35b6100ef60048036038101906100ea9190610b30565b6105ac565b6040516100fc9190610b5d565b60405180910390f35b61010d6105eb565b60405161011a9190610b5d565b60405180910390f35b61012b610615565b6040516101389190610b5d565b60405180910390f35b60005481565b60008081548092919061015990610ba7565b91905055506040518060a001604052808673ffffffffffffffffffffffffffffffffffffffff168152602001858152602001848152602001838152602001828152506002846040516101ab9190610c2c565b908152602001604051809103902060008201518160000160006101000a81548173ffffffffffffffffffffffffffffffffffffffff021916908373ffffffffffffffffffffffffffffffffffffffff160217905550602082015181600101908051906020019061021c92919061063b565b50604082015181600201908051906020019061023992919061063b565b50606082015181600301908051906020019061025692919061063b565b50608082015181600401908051906020019061027392919061063b565b509050506003859080600181540180825580915050600190039060005260206000200160009091909190916101000a81548173ffffffffffffffffffffffffffffffffffffffff021916908373ffffffffffffffffffffffffffffffffffffffff1602179055507f3a92f8dece62f9b29e9012bd5b5bab2adf3044a1ce972e3d36c0a0b50fb4f36c8585858585604051610311959493929190610a95565b60405180910390a15050505050565b6002818051602081018201805184825260208301602085012081835280955050505050506000915090508060000160009054906101000a900473ffffffffffffffffffffffffffffffffffffffff169080600101805461037f90610c72565b80601f01602080910402602001604051908101604052809291908181526020018280546103ab90610c72565b80156103f85780601f106103cd576101008083540402835291602001916103f8565b820191906000526020600020905b8154815290600101906020018083116103db57829003601f168201915b50505050509080600201805461040d90610c72565b80601f016020809104026020016040519081016040528092919081815260200182805461043990610c72565b80156104865780601f1061045b57610100808354040283529160200191610486565b820191906000526020600020905b81548152906001019060200180831161046957829003601f168201915b50505050509080600301805461049b90610c72565b80601f01602080910402602001604051908101604052809291908181526020018280546104c790610c72565b80156105145780601f106104e957610100808354040283529160200191610514565b820191906000526020600020905b8154815290600101906020018083116104f757829003601f168201915b50505050509080600401805461052990610c72565b80601f016020809104026020016040519081016040528092919081815260200182805461055590610c72565b80156105a25780601f10610577576101008083540402835291602001916105a2565b820191906000526020600020905b81548152906001019060200180831161058557829003601f168201915b5050505050905085565b600381815481106105bc57600080fd5b906000526020600020016000915054906101000a900473ffffffffffffffffffffffffffffffffffffffff1681565b6000600160009054906101000a900473ffffffffffffffffffffffffffffffffffffffff16905090565b600160009054906101000a900473ffffffffffffffffffffffffffffffffffffffff1681565b82805461064790610c72565b90600052602060002090601f01602090048101928261066957600085556106b0565b82601f1061068257805160ff19168380011785556106b0565b828001600101855582156106b0579182015b828111156106af578251825591602001919060010190610694565b5b5090506106bd91906106c1565b5090565b5b808211156106da5760008160009055506001016106c2565b5090565b6000819050919050565b6106f1816106de565b82525050565b600060208201905061070c60008301846106e8565b92915050565b6000604051905090565b600080fd5b600080fd5b600073ffffffffffffffffffffffffffffffffffffffff82169050919050565b600061075182610726565b9050919050565b61076181610746565b811461076c57600080fd5b50565b60008135905061077e81610758565b92915050565b600080fd5b600080fd5b6000601f19601f8301169050919050565b7f4e487b7100000000000000000000000000000000000000000000000000000000600052604160045260246000fd5b6107d78261078e565b810181811067ffffffffffffffff821117156107f6576107f561079f565b5b80604052505050565b6000610809610712565b905061081582826107ce565b919050565b600067ffffffffffffffff8211156108355761083461079f565b5b61083e8261078e565b9050602081019050919050565b82818337600083830152505050565b600061086d6108688461081a565b6107ff565b90508281526020810184848401111561088957610888610789565b5b61089484828561084b565b509392505050565b600082601f8301126108b1576108b0610784565b5b81356108c184826020860161085a565b91505092915050565b600080600080600060a086880312156108e6576108e561071c565b5b60006108f48882890161076f565b955050602086013567ffffffffffffffff81111561091557610914610721565b5b6109218882890161089c565b945050604086013567ffffffffffffffff81111561094257610941610721565b5b61094e8882890161089c565b935050606086013567ffffffffffffffff81111561096f5761096e610721565b5b61097b8882890161089c565b925050608086013567ffffffffffffffff81111561099c5761099b610721565b5b6109a88882890161089c565b9150509295509295909350565b6000602082840312156109cb576109ca61071c565b5b600082013567ffffffffffffffff8111156109e9576109e8610721565b5b6109f58482850161089c565b91505092915050565b610a0781610746565b82525050565b600081519050919050565b600082825260208201905092915050565b60005b83811015610a47578082015181840152602081019050610a2c565b83811115610a56576000848401525b50505050565b6000610a6782610a0d565b610a718185610a18565b9350610a81818560208601610a29565b610a8a8161078e565b840191505092915050565b600060a082019050610aaa60008301886109fe565b8181036020830152610abc8187610a5c565b90508181036040830152610ad08186610a5c565b90508181036060830152610ae48185610a5c565b90508181036080830152610af88184610a5c565b90509695505050505050565b610b0d816106de565b8114610b1857600080fd5b50565b600081359050610b2a81610b04565b92915050565b600060208284031215610b4657610b4561071c565b5b6000610b5484828501610b1b565b91505092915050565b6000602082019050610b7260008301846109fe565b92915050565b7f4e487b7100000000000000000000000000000000000000000000000000000000600052601160045260246000fd5b6000610bb2826106de565b91507fffffffffffffffffffffffffffffffffffffffffffffffffffffffffffffffff821415610be557610be4610b78565b5b600182019050919050565b600081905092915050565b6000610c0682610a0d565b610c108185610bf0565b9350610c20818560208601610a29565b80840191505092915050565b6000610c388284610bfb565b915081905092915050565b7f4e487b7100000000000000000000000000000000000000000000000000000000600052602260045260246000fd5b60006002820490506001821680610c8a57607f821691505b60208210811415610c9e57610c9d610c43565b5b5091905056fea26469706673582212207091b740c852939142fe45c1d872e7e4e02ed31712d254e411411a1ff433818f64736f6c634300080b0033",
  "immutableReferences": {},
  "source": "// SPDX-License-Identifier: MIT\r\n\r\npragma solidity >=0.4.22 <0.9.0;\r\n\r\ncontract Auth {\r\n    uint public userCount = 0;\r\n    address public adminAddress;\r\n\r\n    mapping(string => User) public usersList;\r\n    address[] public userList; // Store the addresses of all users\r\n\r\n    struct User {\r\n        address add;\r\n        string username;\r\n        string email;\r\n        string password;\r\n        string role;\r\n    }\r\n\r\n    event UserCreated(\r\n        address add,\r\n        string username,\r\n        string email,\r\n        string password,\r\n        string role\r\n    );\r\n\r\n    constructor() {\r\n        adminAddress = 0x2C858A719fb1dEd3eFb6eD248eF93d53d3AFBD7B;\r\n        createUser(\r\n            adminAddress,\r\n            \"Mariem Turki\",\r\n            \"mariem.turki@isimg.tn\",\r\n            \"mariem123\",\r\n            \"admin\"\r\n        );\r\n    }\r\n\r\n    function getAdminAddress() public view returns (address) {\r\n        return adminAddress;\r\n    }\r\n\r\n    function createUser(address _add, string memory _username, string memory _email, string memory _password, string memory _role) public {\r\n        userCount++;\r\n        usersList[_email] = User(_add, _username, _email, _password, _role);\r\n        userList.push(_add); // Add the user's address to the user list\r\n        emit UserCreated(_add, _username, _email, _password, _role);\r\n    }\r\n\r\n  \r\n}\r\n",
  "sourcePath": "C:\\Users\\ASUS\\PFA6.0\\Model\\Blockchain\\contracts\\Auth.sol",
  "compiler": {
    "name": "solc",
    "version": "0.8.11+commit.d7f03943.Emscripten.clang"
  },
  "schemaVersion": "3.4.4",
  "updatedAt": "2024-04-03T12:41:18.097Z",
  "devdoc": {
    "kind": "dev",
    "methods": {},
    "version": 1
  },
  "userdoc": {
    "kind": "user",
    "methods": {},
    "version": 1
  }
}