{
  "contractName": "Auth",
  "abi": [
    {
      "inputs": [],
      "stateMutability": "nonpayable",
      "type": "constructor"
    },
    {
      "anonymous": false,
      "inputs": [
        {
          "indexed": false,
          "internalType": "address",
          "name": "adr",
          "type": "address"
        },
        {
          "indexed": false,
          "internalType": "string",
          "name": "email",
          "type": "string"
        },
        {
          "indexed": false,
          "internalType": "string",
          "name": "pwd",
          "type": "string"
        },
        {
          "indexed": false,
          "internalType": "string",
          "name": "role",
          "type": "string"
        }
      ],
      "name": "AccountCreated",
      "type": "event"
    },
    {
      "anonymous": false,
      "inputs": [
        {
          "indexed": false,
          "internalType": "address",
          "name": "add",
          "type": "address"
        },
        {
          "indexed": false,
          "internalType": "string",
          "name": "username",
          "type": "string"
        },
        {
          "indexed": false,
          "internalType": "string",
          "name": "email",
          "type": "string"
        },
        {
          "indexed": false,
          "internalType": "string",
          "name": "password",
          "type": "string"
        }
      ],
      "name": "AdminCreated",
      "type": "event"
    },
    {
      "anonymous": false,
      "inputs": [
        {
          "indexed": false,
          "internalType": "address",
          "name": "add",
          "type": "address"
        },
        {
          "indexed": false,
          "internalType": "string",
          "name": "username",
          "type": "string"
        },
        {
          "indexed": false,
          "internalType": "string",
          "name": "email",
          "type": "string"
        },
        {
          "indexed": false,
          "internalType": "string",
          "name": "password",
          "type": "string"
        }
      ],
      "name": "AssistantCreated",
      "type": "event"
    },
    {
      "anonymous": false,
      "inputs": [
        {
          "indexed": false,
          "internalType": "address",
          "name": "add",
          "type": "address"
        },
        {
          "indexed": false,
          "internalType": "string",
          "name": "username",
          "type": "string"
        },
        {
          "indexed": false,
          "internalType": "string",
          "name": "email",
          "type": "string"
        },
        {
          "indexed": false,
          "internalType": "string",
          "name": "password",
          "type": "string"
        },
        {
          "indexed": false,
          "internalType": "string",
          "name": "service",
          "type": "string"
        }
      ],
      "name": "DoctorCreated",
      "type": "event"
    },
    {
      "inputs": [
        {
          "internalType": "uint256",
          "name": "",
          "type": "uint256"
        }
      ],
      "name": "AllAccounts",
      "outputs": [
        {
          "internalType": "address",
          "name": "adr",
          "type": "address"
        },
        {
          "internalType": "string",
          "name": "email",
          "type": "string"
        },
        {
          "internalType": "string",
          "name": "pwd",
          "type": "string"
        },
        {
          "internalType": "string",
          "name": "role",
          "type": "string"
        }
      ],
      "stateMutability": "view",
      "type": "function"
    },
    {
      "inputs": [],
      "name": "adminAddress",
      "outputs": [
        {
          "internalType": "address",
          "name": "",
          "type": "address"
        }
      ],
      "stateMutability": "view",
      "type": "function"
    },
    {
      "inputs": [],
      "name": "adminCreated",
      "outputs": [
        {
          "internalType": "bool",
          "name": "",
          "type": "bool"
        }
      ],
      "stateMutability": "view",
      "type": "function"
    },
    {
      "inputs": [],
      "name": "adminEmail",
      "outputs": [
        {
          "internalType": "string",
          "name": "",
          "type": "string"
        }
      ],
      "stateMutability": "view",
      "type": "function"
    },
    {
      "inputs": [],
      "name": "adminPassword",
      "outputs": [
        {
          "internalType": "string",
          "name": "",
          "type": "string"
        }
      ],
      "stateMutability": "view",
      "type": "function"
    },
    {
      "inputs": [],
      "name": "adminUsername",
      "outputs": [
        {
          "internalType": "string",
          "name": "",
          "type": "string"
        }
      ],
      "stateMutability": "view",
      "type": "function"
    },
    {
      "inputs": [
        {
          "internalType": "uint256",
          "name": "",
          "type": "uint256"
        }
      ],
      "name": "assistantAddresses",
      "outputs": [
        {
          "internalType": "address",
          "name": "",
          "type": "address"
        }
      ],
      "stateMutability": "view",
      "type": "function"
    },
    {
      "inputs": [],
      "name": "assistantCreated",
      "outputs": [
        {
          "internalType": "bool",
          "name": "",
          "type": "bool"
        }
      ],
      "stateMutability": "view",
      "type": "function"
    },
    {
      "inputs": [
        {
          "internalType": "string",
          "name": "",
          "type": "string"
        }
      ],
      "name": "assistantsList",
      "outputs": [
        {
          "internalType": "address",
          "name": "add",
          "type": "address"
        },
        {
          "internalType": "string",
          "name": "username",
          "type": "string"
        },
        {
          "internalType": "string",
          "name": "email",
          "type": "string"
        },
        {
          "internalType": "string",
          "name": "password",
          "type": "string"
        }
      ],
      "stateMutability": "view",
      "type": "function"
    },
    {
      "inputs": [
        {
          "internalType": "uint256",
          "name": "",
          "type": "uint256"
        }
      ],
      "name": "doctorAddresses",
      "outputs": [
        {
          "internalType": "address",
          "name": "",
          "type": "address"
        }
      ],
      "stateMutability": "view",
      "type": "function"
    },
    {
      "inputs": [],
      "name": "doctorCreated",
      "outputs": [
        {
          "internalType": "bool",
          "name": "",
          "type": "bool"
        }
      ],
      "stateMutability": "view",
      "type": "function"
    },
    {
      "inputs": [
        {
          "internalType": "string",
          "name": "",
          "type": "string"
        },
        {
          "internalType": "uint256",
          "name": "",
          "type": "uint256"
        }
      ],
      "name": "doctorsByService",
      "outputs": [
        {
          "internalType": "address",
          "name": "add",
          "type": "address"
        },
        {
          "internalType": "string",
          "name": "username",
          "type": "string"
        },
        {
          "internalType": "string",
          "name": "email",
          "type": "string"
        },
        {
          "internalType": "string",
          "name": "password",
          "type": "string"
        },
        {
          "internalType": "string",
          "name": "service",
          "type": "string"
        }
      ],
      "stateMutability": "view",
      "type": "function"
    },
    {
      "inputs": [
        {
          "internalType": "string",
          "name": "",
          "type": "string"
        }
      ],
      "name": "doctorsList",
      "outputs": [
        {
          "internalType": "address",
          "name": "add",
          "type": "address"
        },
        {
          "internalType": "string",
          "name": "username",
          "type": "string"
        },
        {
          "internalType": "string",
          "name": "email",
          "type": "string"
        },
        {
          "internalType": "string",
          "name": "password",
          "type": "string"
        },
        {
          "internalType": "string",
          "name": "service",
          "type": "string"
        }
      ],
      "stateMutability": "view",
      "type": "function"
    },
    {
      "inputs": [],
      "name": "getAdminAddress",
      "outputs": [
        {
          "internalType": "address",
          "name": "",
          "type": "address"
        }
      ],
      "stateMutability": "view",
      "type": "function"
    },
    {
      "inputs": [],
      "name": "getEmailAdmin",
      "outputs": [
        {
          "internalType": "string",
          "name": "",
          "type": "string"
        }
      ],
      "stateMutability": "view",
      "type": "function"
    },
    {
      "inputs": [],
      "name": "getPasswordAdmin",
      "outputs": [
        {
          "internalType": "string",
          "name": "",
          "type": "string"
        }
      ],
      "stateMutability": "view",
      "type": "function"
    },
    {
      "inputs": [
        {
          "internalType": "address",
          "name": "_add",
          "type": "address"
        },
        {
          "internalType": "string",
          "name": "_username",
          "type": "string"
        },
        {
          "internalType": "string",
          "name": "_email",
          "type": "string"
        },
        {
          "internalType": "string",
          "name": "_password",
          "type": "string"
        },
        {
          "internalType": "string",
          "name": "_service",
          "type": "string"
        }
      ],
      "name": "createDoctor",
      "outputs": [],
      "stateMutability": "nonpayable",
      "type": "function"
    },
    {
      "inputs": [
        {
          "internalType": "string",
          "name": "_service",
          "type": "string"
        }
      ],
      "name": "getDoctorsByService",
      "outputs": [
        {
          "internalType": "string[]",
          "name": "",
          "type": "string[]"
        }
      ],
      "stateMutability": "view",
      "type": "function"
    },
    {
      "inputs": [],
      "name": "getDoctorsList",
      "outputs": [
        {
          "internalType": "address[]",
          "name": "",
          "type": "address[]"
        }
      ],
      "stateMutability": "view",
      "type": "function"
    },
    {
      "inputs": [
        {
          "internalType": "string",
          "name": "_email",
          "type": "string"
        }
      ],
      "name": "getDoctorAddress",
      "outputs": [
        {
          "internalType": "address",
          "name": "",
          "type": "address"
        }
      ],
      "stateMutability": "view",
      "type": "function"
    },
    {
      "inputs": [
        {
          "internalType": "string",
          "name": "_email",
          "type": "string"
        }
      ],
      "name": "getDoctorPassword",
      "outputs": [
        {
          "internalType": "string",
          "name": "",
          "type": "string"
        }
      ],
      "stateMutability": "view",
      "type": "function"
    },
    {
      "inputs": [
        {
          "internalType": "address",
          "name": "_add",
          "type": "address"
        },
        {
          "internalType": "string",
          "name": "_username",
          "type": "string"
        },
        {
          "internalType": "string",
          "name": "_email",
          "type": "string"
        },
        {
          "internalType": "string",
          "name": "_password",
          "type": "string"
        }
      ],
      "name": "createAssistant",
      "outputs": [],
      "stateMutability": "nonpayable",
      "type": "function"
    },
    {
      "inputs": [
        {
          "internalType": "string",
          "name": "_email",
          "type": "string"
        }
      ],
      "name": "getAssistantAddress",
      "outputs": [
        {
          "internalType": "address",
          "name": "",
          "type": "address"
        }
      ],
      "stateMutability": "view",
      "type": "function"
    },
    {
      "inputs": [
        {
          "internalType": "string",
          "name": "_email",
          "type": "string"
        }
      ],
      "name": "getAssistantPassword",
      "outputs": [
        {
          "internalType": "string",
          "name": "",
          "type": "string"
        }
      ],
      "stateMutability": "view",
      "type": "function"
    },
    {
      "inputs": [],
      "name": "getAssistantsList",
      "outputs": [
        {
          "internalType": "address[]",
          "name": "",
          "type": "address[]"
        }
      ],
      "stateMutability": "view",
      "type": "function"
    },
    {
      "inputs": [
        {
          "internalType": "string",
          "name": "_email",
          "type": "string"
        },
        {
          "internalType": "string",
          "name": "_pwd",
          "type": "string"
        }
      ],
      "name": "VerifyRole",
      "outputs": [
        {
          "internalType": "string",
          "name": "",
          "type": "string"
        }
      ],
      "stateMutability": "view",
      "type": "function"
    },
    {
      "inputs": [],
      "name": "getAllAccounts",
      "outputs": [
        {
          "components": [
            {
              "internalType": "address",
              "name": "adr",
              "type": "address"
            },
            {
              "internalType": "string",
              "name": "email",
              "type": "string"
            },
            {
              "internalType": "string",
              "name": "pwd",
              "type": "string"
            },
            {
              "internalType": "string",
              "name": "role",
              "type": "string"
            }
          ],
          "internalType": "struct Auth.Account[]",
          "name": "",
          "type": "tuple[]"
        }
      ],
      "stateMutability": "view",
      "type": "function"
    }
  ],
  "bytecode": "0x60806040523480156200001157600080fd5b5073a598b97c46320cc45aee4110b715ba998a4d4e5a6000806101000a81548173ffffffffffffffffffffffffffffffffffffffff021916908373ffffffffffffffffffffffffffffffffffffffff1602179055506040518060400160405280600c81526020017f4d617269656d205475726b69000000000000000000000000000000000000000081525060019080519060200190620000b392919062000454565b506040518060400160405280601581526020017f6d617269656d2e7475726b69406973696d672e746e0000000000000000000000815250600290805190602001906200010192919062000454565b506040518060400160405280600981526020017f6d617269656d3132330000000000000000000000000000000000000000000000815250600390805190602001906200014f92919062000454565b506001600060146101000a81548160ff0219169083151502179055507f8e19ec4f98bc8faffafffa0475fcae88c9ae9f03ea6551af6b8c9fabd7349f2b60008054906101000a900473ffffffffffffffffffffffffffffffffffffffff16600160026003604051620001c5949392919062000660565b60405180910390a16004604051806080016040528060008054906101000a900473ffffffffffffffffffffffffffffffffffffffff1673ffffffffffffffffffffffffffffffffffffffff16815260200160028054620002259062000578565b80601f0160208091040260200160405190810160405280929190818152602001828054620002539062000578565b8015620002a45780601f106200027857610100808354040283529160200191620002a4565b820191906000526020600020905b8154815290600101906020018083116200028657829003601f168201915b5050505050815260200160038054620002bd9062000578565b80601f0160208091040260200160405190810160405280929190818152602001828054620002eb9062000578565b80156200033c5780601f1062000310576101008083540402835291602001916200033c565b820191906000526020600020905b8154815290600101906020018083116200031e57829003601f168201915b505050505081526020016040518060400160405280600581526020017f61646d696e000000000000000000000000000000000000000000000000000000815250815250908060018154018082558091505060019003906000526020600020906004020160009091909190915060008201518160000160006101000a81548173ffffffffffffffffffffffffffffffffffffffff021916908373ffffffffffffffffffffffffffffffffffffffff16021790555060208201518160010190805190602001906200040d92919062000454565b5060408201518160020190805190602001906200042c92919062000454565b5060608201518160030190805190602001906200044b92919062000454565b505050620006c2565b828054620004629062000578565b90600052602060002090601f016020900481019282620004865760008555620004d2565b82601f10620004a157805160ff1916838001178555620004d2565b82800160010185558215620004d2579182015b82811115620004d1578251825591602001919060010190620004b4565b5b509050620004e19190620004e5565b5090565b5b8082111562000500576000816000905550600101620004e6565b5090565b600073ffffffffffffffffffffffffffffffffffffffff82169050919050565b6000620005318262000504565b9050919050565b620005438162000524565b82525050565b7f4e487b7100000000000000000000000000000000000000000000000000000000600052602260045260246000fd5b600060028204905060018216806200059157607f821691505b60208210811415620005a857620005a762000549565b5b50919050565b600082825260208201905092915050565b60008190508160005260206000209050919050565b60008154620005e38162000578565b620005ef8186620005ae565b945060018216600081146200060d5760018114620006205762000657565b60ff198316865260208601935062000657565b6200062b85620005bf565b60005b838110156200064f578154818901526001820191506020810190506200062e565b808801955050505b50505092915050565b600060808201905062000677600083018762000538565b81810360208301526200068b8186620005d4565b90508181036040830152620006a18185620005d4565b90508181036060830152620006b78184620005d4565b905095945050505050565b6131ef80620006d26000396000f3fe608060405234801561001057600080fd5b50600436106101a95760003560e01c806378e94344116100f9578063b663922f11610097578063c95171ae11610071578063c95171ae14610530578063e098e76c1461054e578063e5ae1b221461056c578063fc6f94681461059c576101a9565b8063b663922f1461049c578063bad1a0a8146104cc578063c93bcf6414610500576101a9565b806399ac0878116100d357806399ac0878146103fc5780639d7716761461041a578063ad9c63dd1461044e578063b2e6b9121461047e576101a9565b806378e943441461038f5780637e4eecd5146103ad5780638679abf9146103e0576101a9565b80633ba51e7c116101665780634c1cce74116101405780634c1cce74146103175780634fb064cc146103355780636b49eb0f146103535780636c6fb44814610371576101a9565b80633ba51e7c146102875780633e3e6caa146102b75780634bdb4537146102e7576101a9565b806308893adb146101ae57806308e93d0a146101cc578063138a0afc146101ea57806315ff99f11461021d5780631d6f3dcb1461023b5780632a79560a14610257575b600080fd5b6101b66105ba565b6040516101c391906124d7565b60405180910390f35b6101d46105cd565b6040516101e191906126ff565b60405180910390f35b61020460048036038101906101ff919061276b565b610838565b60405161021494939291906127f1565b60405180910390f35b610225610a30565b60405161023291906124d7565b60405180910390f35b610255600480360381019061025091906129ac565b610a43565b005b610271600480360381019061026c9190612a97565b610f26565b60405161027e9190612ba2565b60405180910390f35b6102a1600480360381019061029c919061276b565b6110b1565b6040516102ae9190612bc4565b60405180910390f35b6102d160048036038101906102cc919061276b565b6110f0565b6040516102de9190612bc4565b60405180910390f35b61030160048036038101906102fc9190612bdf565b61112f565b60405161030e9190612c57565b60405180910390f35b61031f611324565b60405161032c9190612c57565b60405180910390f35b61033d6113b2565b60405161034a9190612c57565b60405180910390f35b61035b611444565b6040516103689190612c57565b60405180910390f35b6103796114d2565b6040516103869190612c57565b60405180910390f35b610397611560565b6040516103a49190612c57565b60405180910390f35b6103c760048036038101906103c29190612a97565b6115f2565b6040516103d794939291906127f1565b60405180910390f35b6103fa60048036038101906103f59190612c79565b6117f0565b005b610404611b6c565b60405161041191906124d7565b60405180910390f35b610434600480360381019061042f9190612d34565b611b7f565b604051610445959493929190612d90565b60405180910390f35b61046860048036038101906104639190612a97565b611e28565b6040516104759190612bc4565b60405180910390f35b610486611e73565b6040516104939190612bc4565b60405180910390f35b6104b660048036038101906104b19190612a97565b611e9c565b6040516104c39190612bc4565b60405180910390f35b6104e660048036038101906104e19190612a97565b611ee7565b6040516104f7959493929190612d90565b60405180910390f35b61051a60048036038101906105159190612a97565b612173565b6040516105279190612c57565b60405180910390f35b610538612226565b6040516105459190612eae565b60405180910390f35b6105566122b4565b6040516105639190612eae565b60405180910390f35b61058660048036038101906105819190612a97565b612342565b6040516105939190612c57565b60405180910390f35b6105a46123f5565b6040516105b19190612bc4565b60405180910390f35b600060149054906101000a900460ff1681565b60606004805480602002602001604051908101604052809291908181526020016000905b8282101561082f57838290600052602060002090600402016040518060800160405290816000820160009054906101000a900473ffffffffffffffffffffffffffffffffffffffff1673ffffffffffffffffffffffffffffffffffffffff1673ffffffffffffffffffffffffffffffffffffffff16815260200160018201805461067a90612eff565b80601f01602080910402602001604051908101604052809291908181526020018280546106a690612eff565b80156106f35780601f106106c8576101008083540402835291602001916106f3565b820191906000526020600020905b8154815290600101906020018083116106d657829003601f168201915b5050505050815260200160028201805461070c90612eff565b80601f016020809104026020016040519081016040528092919081815260200182805461073890612eff565b80156107855780601f1061075a57610100808354040283529160200191610785565b820191906000526020600020905b81548152906001019060200180831161076857829003601f168201915b5050505050815260200160038201805461079e90612eff565b80601f01602080910402602001604051908101604052809291908181526020018280546107ca90612eff565b80156108175780601f106107ec57610100808354040283529160200191610817565b820191906000526020600020905b8154815290600101906020018083116107fa57829003601f168201915b505050505081525050815260200190600101906105f1565b50505050905090565b6004818154811061084857600080fd5b90600052602060002090600402016000915090508060000160009054906101000a900473ffffffffffffffffffffffffffffffffffffffff169080600101805461089190612eff565b80601f01602080910402602001604051908101604052809291908181526020018280546108bd90612eff565b801561090a5780601f106108df5761010080835404028352916020019161090a565b820191906000526020600020905b8154815290600101906020018083116108ed57829003601f168201915b50505050509080600201805461091f90612eff565b80601f016020809104026020016040519081016040528092919081815260200182805461094b90612eff565b80156109985780601f1061096d57610100808354040283529160200191610998565b820191906000526020600020905b81548152906001019060200180831161097b57829003601f168201915b5050505050908060030180546109ad90612eff565b80601f01602080910402602001604051908101604052809291908181526020018280546109d990612eff565b8015610a265780601f106109fb57610100808354040283529160200191610a26565b820191906000526020600020905b815481529060010190602001808311610a0957829003601f168201915b5050505050905084565b600560009054906101000a900460ff1681565b60008054906101000a900473ffffffffffffffffffffffffffffffffffffffff1673ffffffffffffffffffffffffffffffffffffffff163373ffffffffffffffffffffffffffffffffffffffff1614610ad1576040517f08c379a0000000000000000000000000000000000000000000000000000000008152600401610ac890612f7d565b60405180910390fd5b6040518060a001604052808673ffffffffffffffffffffffffffffffffffffffff16815260200185815260200184815260200183815260200182815250600684604051610b1e9190612fd9565b908152602001604051809103902060008201518160000160006101000a81548173ffffffffffffffffffffffffffffffffffffffff021916908373ffffffffffffffffffffffffffffffffffffffff1602179055506020820151816001019080519060200190610b8f929190612419565b506040820151816002019080519060200190610bac929190612419565b506060820151816003019080519060200190610bc9929190612419565b506080820151816004019080519060200190610be6929190612419565b50905050600781604051610bfa9190612fd9565b90815260200160405180910390206040518060a001604052808773ffffffffffffffffffffffffffffffffffffffff16815260200186815260200185815260200184815260200183815250908060018154018082558091505060019003906000526020600020906005020160009091909190915060008201518160000160006101000a81548173ffffffffffffffffffffffffffffffffffffffff021916908373ffffffffffffffffffffffffffffffffffffffff1602179055506020820151816001019080519060200190610cd1929190612419565b506040820151816002019080519060200190610cee929190612419565b506060820151816003019080519060200190610d0b929190612419565b506080820151816004019080519060200190610d28929190612419565b505050600460405180608001604052808773ffffffffffffffffffffffffffffffffffffffff1681526020018581526020018481526020016040518060400160405280600681526020017f646f63746f720000000000000000000000000000000000000000000000000000815250815250908060018154018082558091505060019003906000526020600020906004020160009091909190915060008201518160000160006101000a81548173ffffffffffffffffffffffffffffffffffffffff021916908373ffffffffffffffffffffffffffffffffffffffff1602179055506020820151816001019080519060200190610e25929190612419565b506040820151816002019080519060200190610e42929190612419565b506060820151816003019080519060200190610e5f929190612419565b5050506008859080600181540180825580915050600190039060005260206000200160009091909190916101000a81548173ffffffffffffffffffffffffffffffffffffffff021916908373ffffffffffffffffffffffffffffffffffffffff1602179055506001600560006101000a81548160ff0219169083151502179055507f4b9fe1fe8ccce68e5bb7567f1e0b2fc1d5fb4458e67eed35539fd38ef3192bf78585858585604051610f17959493929190612d90565b60405180910390a15050505050565b60606000600783604051610f3a9190612fd9565b908152602001604051809103902080549050905060008167ffffffffffffffff811115610f6a57610f69612881565b5b604051908082528060200260200182016040528015610f9d57816020015b6060815260200190600190039081610f885790505b50905060005b828110156110a657600785604051610fbb9190612fd9565b90815260200160405180910390208181548110610fdb57610fda612ff0565b5b90600052602060002090600502016001018054610ff790612eff565b80601f016020809104026020016040519081016040528092919081815260200182805461102390612eff565b80156110705780601f1061104557610100808354040283529160200191611070565b820191906000526020600020905b81548152906001019060200180831161105357829003601f168201915b505050505082828151811061108857611087612ff0565b5b6020026020010181905250808061109e9061304e565b915050610fa3565b508092505050919050565b600881815481106110c157600080fd5b906000526020600020016000915054906101000a900473ffffffffffffffffffffffffffffffffffffffff1681565b600b818154811061110057600080fd5b906000526020600020016000915054906101000a900473ffffffffffffffffffffffffffffffffffffffff1681565b606060005b6004805490508110156113195782805190602001206004828154811061115d5761115c612ff0565b5b906000526020600020906004020160020160405161117b9190613136565b60405180910390201480156111cf57508380519060200120600482815481106111a7576111a6612ff0565b5b90600052602060002090600402016001016040516111c59190613136565b6040518091039020145b801561124b5750600481815481106111ea576111e9612ff0565b5b906000526020600020906004020160000160009054906101000a900473ffffffffffffffffffffffffffffffffffffffff1673ffffffffffffffffffffffffffffffffffffffff163373ffffffffffffffffffffffffffffffffffffffff16145b15611306576004818154811061126457611263612ff0565b5b9060005260206000209060040201600301805461128090612eff565b80601f01602080910402602001604051908101604052809291908181526020018280546112ac90612eff565b80156112f95780601f106112ce576101008083540402835291602001916112f9565b820191906000526020600020905b8154815290600101906020018083116112dc57829003601f168201915b505050505091505061131e565b80806113119061304e565b915050611134565b508190505b92915050565b6002805461133190612eff565b80601f016020809104026020016040519081016040528092919081815260200182805461135d90612eff565b80156113aa5780601f1061137f576101008083540402835291602001916113aa565b820191906000526020600020905b81548152906001019060200180831161138d57829003601f168201915b505050505081565b6060600380546113c190612eff565b80601f01602080910402602001604051908101604052809291908181526020018280546113ed90612eff565b801561143a5780601f1061140f5761010080835404028352916020019161143a565b820191906000526020600020905b81548152906001019060200180831161141d57829003601f168201915b5050505050905090565b6003805461145190612eff565b80601f016020809104026020016040519081016040528092919081815260200182805461147d90612eff565b80156114ca5780601f1061149f576101008083540402835291602001916114ca565b820191906000526020600020905b8154815290600101906020018083116114ad57829003601f168201915b505050505081565b600180546114df90612eff565b80601f016020809104026020016040519081016040528092919081815260200182805461150b90612eff565b80156115585780601f1061152d57610100808354040283529160200191611558565b820191906000526020600020905b81548152906001019060200180831161153b57829003601f168201915b505050505081565b60606002805461156f90612eff565b80601f016020809104026020016040519081016040528092919081815260200182805461159b90612eff565b80156115e85780601f106115bd576101008083540402835291602001916115e8565b820191906000526020600020905b8154815290600101906020018083116115cb57829003601f168201915b5050505050905090565b600a818051602081018201805184825260208301602085012081835280955050505050506000915090508060000160009054906101000a900473ffffffffffffffffffffffffffffffffffffffff169080600101805461165190612eff565b80601f016020809104026020016040519081016040528092919081815260200182805461167d90612eff565b80156116ca5780601f1061169f576101008083540402835291602001916116ca565b820191906000526020600020905b8154815290600101906020018083116116ad57829003601f168201915b5050505050908060020180546116df90612eff565b80601f016020809104026020016040519081016040528092919081815260200182805461170b90612eff565b80156117585780601f1061172d57610100808354040283529160200191611758565b820191906000526020600020905b81548152906001019060200180831161173b57829003601f168201915b50505050509080600301805461176d90612eff565b80601f016020809104026020016040519081016040528092919081815260200182805461179990612eff565b80156117e65780601f106117bb576101008083540402835291602001916117e6565b820191906000526020600020905b8154815290600101906020018083116117c957829003601f168201915b5050505050905084565b60008054906101000a900473ffffffffffffffffffffffffffffffffffffffff1673ffffffffffffffffffffffffffffffffffffffff163373ffffffffffffffffffffffffffffffffffffffff161461187e576040517f08c379a000000000000000000000000000000000000000000000000000000000815260040161187590613199565b60405180910390fd5b60405180608001604052808573ffffffffffffffffffffffffffffffffffffffff16815260200184815260200183815260200182815250600a836040516118c59190612fd9565b908152602001604051809103902060008201518160000160006101000a81548173ffffffffffffffffffffffffffffffffffffffff021916908373ffffffffffffffffffffffffffffffffffffffff1602179055506020820151816001019080519060200190611936929190612419565b506040820151816002019080519060200190611953929190612419565b506060820151816003019080519060200190611970929190612419565b50905050600460405180608001604052808673ffffffffffffffffffffffffffffffffffffffff1681526020018481526020018381526020016040518060400160405280600981526020017f617373697374616e740000000000000000000000000000000000000000000000815250815250908060018154018082558091505060019003906000526020600020906004020160009091909190915060008201518160000160006101000a81548173ffffffffffffffffffffffffffffffffffffffff021916908373ffffffffffffffffffffffffffffffffffffffff1602179055506020820151816001019080519060200190611a6e929190612419565b506040820151816002019080519060200190611a8b929190612419565b506060820151816003019080519060200190611aa8929190612419565b505050600b849080600181540180825580915050600190039060005260206000200160009091909190916101000a81548173ffffffffffffffffffffffffffffffffffffffff021916908373ffffffffffffffffffffffffffffffffffffffff1602179055506001600960006101000a81548160ff0219169083151502179055507f44c3b83b8c3084a651a9135aef1ec9a594cbc0e628f1e7d366173426eeb7a04584848484604051611b5e94939291906127f1565b60405180910390a150505050565b600960009054906101000a900460ff1681565b6007828051602081018201805184825260208301602085012081835280955050505050508181548110611bb157600080fd5b9060005260206000209060050201600091509150508060000160009054906101000a900473ffffffffffffffffffffffffffffffffffffffff1690806001018054611bfb90612eff565b80601f0160208091040260200160405190810160405280929190818152602001828054611c2790612eff565b8015611c745780601f10611c4957610100808354040283529160200191611c74565b820191906000526020600020905b815481529060010190602001808311611c5757829003601f168201915b505050505090806002018054611c8990612eff565b80601f0160208091040260200160405190810160405280929190818152602001828054611cb590612eff565b8015611d025780601f10611cd757610100808354040283529160200191611d02565b820191906000526020600020905b815481529060010190602001808311611ce557829003601f168201915b505050505090806003018054611d1790612eff565b80601f0160208091040260200160405190810160405280929190818152602001828054611d4390612eff565b8015611d905780601f10611d6557610100808354040283529160200191611d90565b820191906000526020600020905b815481529060010190602001808311611d7357829003601f168201915b505050505090806004018054611da590612eff565b80601f0160208091040260200160405190810160405280929190818152602001828054611dd190612eff565b8015611e1e5780601f10611df357610100808354040283529160200191611e1e565b820191906000526020600020905b815481529060010190602001808311611e0157829003601f168201915b5050505050905085565b6000600682604051611e3a9190612fd9565b908152602001604051809103902060000160009054906101000a900473ffffffffffffffffffffffffffffffffffffffff169050919050565b60008060009054906101000a900473ffffffffffffffffffffffffffffffffffffffff16905090565b6000600a82604051611eae9190612fd9565b908152602001604051809103902060000160009054906101000a900473ffffffffffffffffffffffffffffffffffffffff169050919050565b6006818051602081018201805184825260208301602085012081835280955050505050506000915090508060000160009054906101000a900473ffffffffffffffffffffffffffffffffffffffff1690806001018054611f4690612eff565b80601f0160208091040260200160405190810160405280929190818152602001828054611f7290612eff565b8015611fbf5780601f10611f9457610100808354040283529160200191611fbf565b820191906000526020600020905b815481529060010190602001808311611fa257829003601f168201915b505050505090806002018054611fd490612eff565b80601f016020809104026020016040519081016040528092919081815260200182805461200090612eff565b801561204d5780601f106120225761010080835404028352916020019161204d565b820191906000526020600020905b81548152906001019060200180831161203057829003601f168201915b50505050509080600301805461206290612eff565b80601f016020809104026020016040519081016040528092919081815260200182805461208e90612eff565b80156120db5780601f106120b0576101008083540402835291602001916120db565b820191906000526020600020905b8154815290600101906020018083116120be57829003601f168201915b5050505050908060040180546120f090612eff565b80601f016020809104026020016040519081016040528092919081815260200182805461211c90612eff565b80156121695780601f1061213e57610100808354040283529160200191612169565b820191906000526020600020905b81548152906001019060200180831161214c57829003601f168201915b5050505050905085565b60606006826040516121859190612fd9565b908152602001604051809103902060030180546121a190612eff565b80601f01602080910402602001604051908101604052809291908181526020018280546121cd90612eff565b801561221a5780601f106121ef5761010080835404028352916020019161221a565b820191906000526020600020905b8154815290600101906020018083116121fd57829003601f168201915b50505050509050919050565b606060088054806020026020016040519081016040528092919081815260200182805480156122aa57602002820191906000526020600020905b8160009054906101000a900473ffffffffffffffffffffffffffffffffffffffff1673ffffffffffffffffffffffffffffffffffffffff1681526020019060010190808311612260575b5050505050905090565b6060600b80548060200260200160405190810160405280929190818152602001828054801561233857602002820191906000526020600020905b8160009054906101000a900473ffffffffffffffffffffffffffffffffffffffff1673ffffffffffffffffffffffffffffffffffffffff16815260200190600101908083116122ee575b5050505050905090565b6060600a826040516123549190612fd9565b9081526020016040518091039020600301805461237090612eff565b80601f016020809104026020016040519081016040528092919081815260200182805461239c90612eff565b80156123e95780601f106123be576101008083540402835291602001916123e9565b820191906000526020600020905b8154815290600101906020018083116123cc57829003601f168201915b50505050509050919050565b60008054906101000a900473ffffffffffffffffffffffffffffffffffffffff1681565b82805461242590612eff565b90600052602060002090601f016020900481019282612447576000855561248e565b82601f1061246057805160ff191683800117855561248e565b8280016001018555821561248e579182015b8281111561248d578251825591602001919060010190612472565b5b50905061249b919061249f565b5090565b5b808211156124b85760008160009055506001016124a0565b5090565b60008115159050919050565b6124d1816124bc565b82525050565b60006020820190506124ec60008301846124c8565b92915050565b600081519050919050565b600082825260208201905092915050565b6000819050602082019050919050565b600073ffffffffffffffffffffffffffffffffffffffff82169050919050565b60006125498261251e565b9050919050565b6125598161253e565b82525050565b600081519050919050565b600082825260208201905092915050565b60005b8381101561259957808201518184015260208101905061257e565b838111156125a8576000848401525b50505050565b6000601f19601f8301169050919050565b60006125ca8261255f565b6125d4818561256a565b93506125e481856020860161257b565b6125ed816125ae565b840191505092915050565b60006080830160008301516126106000860182612550565b506020830151848203602086015261262882826125bf565b9150506040830151848203604086015261264282826125bf565b9150506060830151848203606086015261265c82826125bf565b9150508091505092915050565b600061267583836125f8565b905092915050565b6000602082019050919050565b6000612695826124f2565b61269f81856124fd565b9350836020820285016126b18561250e565b8060005b858110156126ed57848403895281516126ce8582612669565b94506126d98361267d565b925060208a019950506001810190506126b5565b50829750879550505050505092915050565b60006020820190508181036000830152612719818461268a565b905092915050565b6000604051905090565b600080fd5b600080fd5b6000819050919050565b61274881612735565b811461275357600080fd5b50565b6000813590506127658161273f565b92915050565b6000602082840312156127815761278061272b565b5b600061278f84828501612756565b91505092915050565b6127a18161253e565b82525050565b600082825260208201905092915050565b60006127c38261255f565b6127cd81856127a7565b93506127dd81856020860161257b565b6127e6816125ae565b840191505092915050565b60006080820190506128066000830187612798565b818103602083015261281881866127b8565b9050818103604083015261282c81856127b8565b9050818103606083015261284081846127b8565b905095945050505050565b6128548161253e565b811461285f57600080fd5b50565b6000813590506128718161284b565b92915050565b600080fd5b600080fd5b7f4e487b7100000000000000000000000000000000000000000000000000000000600052604160045260246000fd5b6128b9826125ae565b810181811067ffffffffffffffff821117156128d8576128d7612881565b5b80604052505050565b60006128eb612721565b90506128f782826128b0565b919050565b600067ffffffffffffffff82111561291757612916612881565b5b612920826125ae565b9050602081019050919050565b82818337600083830152505050565b600061294f61294a846128fc565b6128e1565b90508281526020810184848401111561296b5761296a61287c565b5b61297684828561292d565b509392505050565b600082601f83011261299357612992612877565b5b81356129a384826020860161293c565b91505092915050565b600080600080600060a086880312156129c8576129c761272b565b5b60006129d688828901612862565b955050602086013567ffffffffffffffff8111156129f7576129f6612730565b5b612a038882890161297e565b945050604086013567ffffffffffffffff811115612a2457612a23612730565b5b612a308882890161297e565b935050606086013567ffffffffffffffff811115612a5157612a50612730565b5b612a5d8882890161297e565b925050608086013567ffffffffffffffff811115612a7e57612a7d612730565b5b612a8a8882890161297e565b9150509295509295909350565b600060208284031215612aad57612aac61272b565b5b600082013567ffffffffffffffff811115612acb57612aca612730565b5b612ad78482850161297e565b91505092915050565b600081519050919050565b600082825260208201905092915050565b6000819050602082019050919050565b6000612b1883836125bf565b905092915050565b6000602082019050919050565b6000612b3882612ae0565b612b428185612aeb565b935083602082028501612b5485612afc565b8060005b85811015612b905784840389528151612b718582612b0c565b9450612b7c83612b20565b925060208a01995050600181019050612b58565b50829750879550505050505092915050565b60006020820190508181036000830152612bbc8184612b2d565b905092915050565b6000602082019050612bd96000830184612798565b92915050565b60008060408385031215612bf657612bf561272b565b5b600083013567ffffffffffffffff811115612c1457612c13612730565b5b612c208582860161297e565b925050602083013567ffffffffffffffff811115612c4157612c40612730565b5b612c4d8582860161297e565b9150509250929050565b60006020820190508181036000830152612c7181846127b8565b905092915050565b60008060008060808587031215612c9357612c9261272b565b5b6000612ca187828801612862565b945050602085013567ffffffffffffffff811115612cc257612cc1612730565b5b612cce8782880161297e565b935050604085013567ffffffffffffffff811115612cef57612cee612730565b5b612cfb8782880161297e565b925050606085013567ffffffffffffffff811115612d1c57612d1b612730565b5b612d288782880161297e565b91505092959194509250565b60008060408385031215612d4b57612d4a61272b565b5b600083013567ffffffffffffffff811115612d6957612d68612730565b5b612d758582860161297e565b9250506020612d8685828601612756565b9150509250929050565b600060a082019050612da56000830188612798565b8181036020830152612db781876127b8565b90508181036040830152612dcb81866127b8565b90508181036060830152612ddf81856127b8565b90508181036080830152612df381846127b8565b90509695505050505050565b600081519050919050565b600082825260208201905092915050565b6000819050602082019050919050565b6000612e378383612550565b60208301905092915050565b6000602082019050919050565b6000612e5b82612dff565b612e658185612e0a565b9350612e7083612e1b565b8060005b83811015612ea1578151612e888882612e2b565b9750612e9383612e43565b925050600181019050612e74565b5085935050505092915050565b60006020820190508181036000830152612ec88184612e50565b905092915050565b7f4e487b7100000000000000000000000000000000000000000000000000000000600052602260045260246000fd5b60006002820490506001821680612f1757607f821691505b60208210811415612f2b57612f2a612ed0565b5b50919050565b7f4f6e6c792061646d696e2063616e2063726561746520646f63746f7200000000600082015250565b6000612f67601c836127a7565b9150612f7282612f31565b602082019050919050565b60006020820190508181036000830152612f9681612f5a565b9050919050565b600081905092915050565b6000612fb38261255f565b612fbd8185612f9d565b9350612fcd81856020860161257b565b80840191505092915050565b6000612fe58284612fa8565b915081905092915050565b7f4e487b7100000000000000000000000000000000000000000000000000000000600052603260045260246000fd5b7f4e487b7100000000000000000000000000000000000000000000000000000000600052601160045260246000fd5b600061305982612735565b91507fffffffffffffffffffffffffffffffffffffffffffffffffffffffffffffffff82141561308c5761308b61301f565b5b600182019050919050565b600081905092915050565b60008190508160005260206000209050919050565b600081546130c481612eff565b6130ce8186613097565b945060018216600081146130e957600181146130fa5761312d565b60ff1983168652818601935061312d565b613103856130a2565b60005b8381101561312557815481890152600182019150602081019050613106565b838801955050505b50505092915050565b600061314282846130b7565b915081905092915050565b7f4f6e6c792061646d696e2063616e2063726561746520617373697374616e7400600082015250565b6000613183601f836127a7565b915061318e8261314d565b602082019050919050565b600060208201905081810360008301526131b281613176565b905091905056fea26469706673582212202880343075c7ca9d2d69217af94b7cdf680ee3d3f6d86a5fc88ff0df011237a064736f6c634300080b0033",
  "immutableReferences": {},
  "source": "// SPDX-License-Identifier: MIT\r\n\r\npragma solidity >=0.4.22 <0.9.0;\r\n\r\ncontract Auth {\r\n\r\n    address public adminAddress;\r\n    bool public adminCreated;\r\n    string public adminUsername;\r\n    string public adminEmail;\r\n    string public adminPassword;\r\n    Account[] public AllAccounts;\r\n\r\n\r\n    event AdminCreated(\r\n        address add,\r\n        string username,\r\n        string email,\r\n        string password\r\n    );\r\n    constructor() {\r\n        adminAddress = 0xA598B97C46320Cc45AeE4110B715BA998A4D4e5a;\r\n        adminUsername = \"Mariem Turki\";\r\n        adminEmail = \"mariem.turki@isimg.tn\";\r\n        adminPassword = \"mariem123\";\r\n        adminCreated = true;\r\n        emit AdminCreated(\r\n            adminAddress,\r\n            adminUsername,\r\n            adminEmail,\r\n            adminPassword\r\n        );\r\n        AllAccounts.push(Account(adminAddress, adminEmail, adminPassword, \"admin\"));\r\n    }\r\n\r\n    function getAdminAddress() public view returns (address) {\r\n        return adminAddress;\r\n    }\r\n\r\n    function getEmailAdmin() public view returns (string memory) {\r\n        return adminEmail;\r\n    }\r\n\r\n    function getPasswordAdmin() public view returns (string memory) {\r\n        return adminPassword;\r\n    }\r\n\r\n\r\n    bool public doctorCreated;\r\n\r\n    struct Doctor {\r\n        address add;\r\n        string username;\r\n        string email;\r\n        string password;\r\n        string service;\r\n    }\r\n    mapping(string => Doctor) public doctorsList;\r\n    mapping(string => Doctor[]) public doctorsByService; \r\n    address[] public doctorAddresses;\r\n\r\n    event DoctorCreated(\r\n        address add,\r\n        string username,\r\n        string email,\r\n        string password,\r\n        string service\r\n    );\r\n\r\n    function createDoctor(address _add, string memory _username, string memory _email, string memory _password,string memory _service) public {\r\n        require(msg.sender == adminAddress, \"Only admin can create doctor\");\r\n        doctorsList[_email] = Doctor(_add, _username, _email, _password,_service);\r\n        doctorsByService[_service].push(Doctor(_add, _username, _email, _password, _service));\r\n        AllAccounts.push(Account(_add, _email, _password, \"doctor\"));\r\n        doctorAddresses.push(_add);\r\n        doctorCreated = true;\r\n        emit DoctorCreated(_add, _username, _email, _password,_service);\r\n    }\r\n\r\n\r\n     function getDoctorsByService(string memory _service) public view returns (string[] memory) {\r\n        uint256 count = doctorsByService[_service].length;\r\n        string[] memory doctorNames = new string[](count);\r\n        \r\n        for (uint256 i = 0; i < count; i++) {\r\n            doctorNames[i] = doctorsByService[_service][i].username;\r\n        }\r\n        \r\n        return doctorNames;\r\n    }\r\n   function getDoctorsList() public view returns (address[] memory) {\r\n        return doctorAddresses;\r\n    }\r\n    \r\n   function getDoctorAddress(string memory _email) public view returns (address) {\r\n    return doctorsList[_email].add;\r\n}\r\n\r\nfunction getDoctorPassword(string memory _email) public view returns (string memory) {\r\n    return doctorsList[_email].password;\r\n}\r\n\r\n \r\n    bool public assistantCreated;\r\n\r\nstruct Assistant {\r\n    address add;\r\n    string username;\r\n    string email;\r\n    string password;\r\n}\r\n\r\nmapping(string => Assistant) public assistantsList;\r\naddress[] public assistantAddresses;\r\n\r\nevent AssistantCreated(\r\n    address add,\r\n    string username,\r\n    string email,\r\n    string password\r\n);\r\n\r\nfunction createAssistant(address _add, string memory _username, string memory _email, string memory _password) public {\r\n    require(msg.sender == adminAddress, \"Only admin can create assistant\");\r\n    assistantsList[_email] = Assistant(_add, _username, _email, _password);\r\n    AllAccounts.push(Account(_add,_email, _password, \"assistant\"));\r\n\r\n    assistantAddresses.push(_add);\r\n    assistantCreated = true;\r\n    emit AssistantCreated(_add, _username, _email, _password);\r\n}\r\n\r\nfunction getAssistantAddress(string memory _email) public view returns (address) {\r\n    return assistantsList[_email].add;\r\n}\r\n\r\n\r\nfunction getAssistantPassword(string memory _email) public view returns (string memory) {\r\n    return assistantsList[_email].password;\r\n}\r\n\r\nfunction getAssistantsList() public view returns (address[] memory) {\r\n    return assistantAddresses;\r\n}\r\n\r\n struct Account {\r\n        address adr;\r\n        string email;\r\n        string pwd;\r\n        string role;\r\n    }\r\nevent AccountCreated(\r\n        address adr,\r\n        string email,\r\n        string pwd,\r\n        string role\r\n    );\r\n\r\nfunction VerifyRole(string memory _email, string memory _pwd) public view returns (string memory) {\r\n    \r\n        for (uint256 i = 0; i < AllAccounts.length; i++) {\r\n\r\n            if (keccak256(bytes(AllAccounts[i].pwd)) == keccak256(bytes(_pwd)) &&\r\n                keccak256(bytes(AllAccounts[i].email)) == keccak256(bytes(_email)) &&\r\n                msg.sender == AllAccounts[i].adr) {\r\n                return AllAccounts[i].role;\r\n            }\r\n        }\r\n                return _pwd; \r\n\r\n    }\r\nfunction getAllAccounts() public view returns (Account[] memory) {\r\n    return AllAccounts;\r\n}\r\n}\r\n",
  "sourcePath": "C:\\Users\\ASUS\\PFA6.0\\Model\\Blockchain\\contracts\\Auth.sol",
  "compiler": {
    "name": "solc",
    "version": "0.8.11+commit.d7f03943.Emscripten.clang"
  },
  "schemaVersion": "3.4.4",
  "updatedAt": "2024-04-17T14:13:10.877Z",
  "devdoc": {
    "kind": "dev",
    "methods": {},
    "version": 1
  },
  "userdoc": {
    "kind": "user",
    "methods": {},
    "version": 1
  }
}