{
  "contractName": "ValidatePatient",
  "abi": [
    {
      "anonymous": false,
      "inputs": [
        {
          "indexed": false,
          "internalType": "string",
          "name": "code",
          "type": "string"
        },
        {
          "indexed": false,
          "internalType": "string",
          "name": "name",
          "type": "string"
        },
        {
          "indexed": false,
          "internalType": "uint256",
          "name": "temperature",
          "type": "uint256"
        },
        {
          "indexed": false,
          "internalType": "bytes32[]",
          "name": "hashList",
          "type": "bytes32[]"
        }
      ],
      "name": "PatientAdded",
      "type": "event"
    },
    {
      "inputs": [],
      "name": "patientCount",
      "outputs": [
        {
          "internalType": "uint256",
          "name": "",
          "type": "uint256"
        }
      ],
      "stateMutability": "view",
      "type": "function"
    },
    {
      "inputs": [
        {
          "internalType": "uint256",
          "name": "",
          "type": "uint256"
        }
      ],
      "name": "patientsList",
      "outputs": [
        {
          "internalType": "string",
          "name": "code",
          "type": "string"
        },
        {
          "internalType": "string",
          "name": "name",
          "type": "string"
        },
        {
          "internalType": "uint256",
          "name": "temperature",
          "type": "uint256"
        }
      ],
      "stateMutability": "view",
      "type": "function"
    },
    {
      "inputs": [
        {
          "internalType": "string[][]",
          "name": "_patients",
          "type": "string[][]"
        }
      ],
      "name": "addAllPatients",
      "outputs": [],
      "stateMutability": "nonpayable",
      "type": "function"
    },
    {
      "inputs": [],
      "name": "getAllPatients",
      "outputs": [
        {
          "internalType": "uint256",
          "name": "count",
          "type": "uint256"
        },
        {
          "internalType": "string[]",
          "name": "codes",
          "type": "string[]"
        },
        {
          "internalType": "string[]",
          "name": "names",
          "type": "string[]"
        },
        {
          "internalType": "uint256[]",
          "name": "temperatures",
          "type": "uint256[]"
        },
        {
          "internalType": "bytes32[][]",
          "name": "hashLists",
          "type": "bytes32[][]"
        }
      ],
      "stateMutability": "view",
      "type": "function"
    }
  ],
  "bytecode": "0x60806040526000805534801561001457600080fd5b506114b8806100246000396000f3fe608060405234801561001057600080fd5b506004361061004c5760003560e01c806318a231a9146100515780632eb1d73f14610073578063a0303c411461008f578063dc65bef4146100ad575b600080fd5b6100596100df565b60405161006a959493929190610d5f565b60405180910390f35b61008d600480360381019061008891906110de565b6104b3565b005b610097610756565b6040516100a49190611127565b60405180910390f35b6100c760048036038101906100c2919061116e565b61075c565b6040516100d6939291906111e5565b60405180910390f35b600060608060608060005494508467ffffffffffffffff81111561010657610105610de7565b5b60405190808252806020026020018201604052801561013957816020015b60608152602001906001900390816101245790505b5093508467ffffffffffffffff81111561015657610155610de7565b5b60405190808252806020026020018201604052801561018957816020015b60608152602001906001900390816101745790505b5092508467ffffffffffffffff8111156101a6576101a5610de7565b5b6040519080825280602002602001820160405280156101d45781602001602082028036833780820191505090505b5091508467ffffffffffffffff8111156101f1576101f0610de7565b5b60405190808252806020026020018201604052801561022457816020015b606081526020019060019003908161020f5790505b5090506000600190505b8581116104ab5760016000828152602001908152602001600020600001805461025690611259565b80601f016020809104026020016040519081016040528092919081815260200182805461028290611259565b80156102cf5780601f106102a4576101008083540402835291602001916102cf565b820191906000526020600020905b8154815290600101906020018083116102b257829003601f168201915b5050505050856001836102e291906112ba565b815181106102f3576102f26112ee565b5b602002602001018190525060016000828152602001908152602001600020600101805461031f90611259565b80601f016020809104026020016040519081016040528092919081815260200182805461034b90611259565b80156103985780601f1061036d57610100808354040283529160200191610398565b820191906000526020600020905b81548152906001019060200180831161037b57829003601f168201915b5050505050846001836103ab91906112ba565b815181106103bc576103bb6112ee565b5b60200260200101819052506001600082815260200190815260200160002060020154836001836103ec91906112ba565b815181106103fd576103fc6112ee565b5b6020026020010181815250506001600082815260200190815260200160002060030180548060200260200160405190810160405280929190818152602001828054801561046957602002820191906000526020600020905b815481526020019060010190808311610455575b50505050508260018361047c91906112ba565b8151811061048d5761048c6112ee565b5b602002602001018190525080806104a39061131d565b91505061022e565b509091929394565b60005b8151811015610752576000808154809291906104d19061131d565b9190505550606060405180608001604052808484815181106104f6576104f56112ee565b5b6020026020010151600081518110610511576105106112ee565b5b60200260200101518152602001848481518110610531576105306112ee565b5b602002602001015160018151811061054c5761054b6112ee565b5b6020026020010151815260200184848151811061056c5761056b6112ee565b5b6020026020010151600281518110610587576105866112ee565b5b602002602001015160405160200161059f91906113a2565b6040516020818303038152906040528051906020012060001c815260200182815250600160008054815260200190815260200160002060008201518160000190805190602001906105f1929190610896565b50602082015181600101908051906020019061060e929190610896565b5060408201518160020155606082015181600301908051906020019061063592919061091c565b509050507f2c11680bb11f2b69d44bfa48e48bbfffcf3e471db52d5b348c6b988d8c37768783838151811061066d5761066c6112ee565b5b6020026020010151600081518110610688576106876112ee565b5b60200260200101518484815181106106a3576106a26112ee565b5b60200260200101516001815181106106be576106bd6112ee565b5b60200260200101518585815181106106d9576106d86112ee565b5b60200260200101516002815181106106f4576106f36112ee565b5b602002602001015160405160200161070c91906113a2565b6040516020818303038152906040528051906020012060001c846040516107369493929190611428565b60405180910390a150808061074a9061131d565b9150506104b6565b5050565b60005481565b600160205280600052604060002060009150905080600001805461077f90611259565b80601f01602080910402602001604051908101604052809291908181526020018280546107ab90611259565b80156107f85780601f106107cd576101008083540402835291602001916107f8565b820191906000526020600020905b8154815290600101906020018083116107db57829003601f168201915b50505050509080600101805461080d90611259565b80601f016020809104026020016040519081016040528092919081815260200182805461083990611259565b80156108865780601f1061085b57610100808354040283529160200191610886565b820191906000526020600020905b81548152906001019060200180831161086957829003601f168201915b5050505050908060020154905083565b8280546108a290611259565b90600052602060002090601f0160209004810192826108c4576000855561090b565b82601f106108dd57805160ff191683800117855561090b565b8280016001018555821561090b579182015b8281111561090a5782518255916020019190600101906108ef565b5b5090506109189190610969565b5090565b828054828255906000526020600020908101928215610958579160200282015b8281111561095757825182559160200191906001019061093c565b5b5090506109659190610986565b5090565b5b8082111561098257600081600090555060010161096a565b5090565b5b8082111561099f576000816000905550600101610987565b5090565b6000819050919050565b6109b6816109a3565b82525050565b600081519050919050565b600082825260208201905092915050565b6000819050602082019050919050565b600081519050919050565b600082825260208201905092915050565b60005b83811015610a22578082015181840152602081019050610a07565b83811115610a31576000848401525b50505050565b6000601f19601f8301169050919050565b6000610a53826109e8565b610a5d81856109f3565b9350610a6d818560208601610a04565b610a7681610a37565b840191505092915050565b6000610a8d8383610a48565b905092915050565b6000602082019050919050565b6000610aad826109bc565b610ab781856109c7565b935083602082028501610ac9856109d8565b8060005b85811015610b055784840389528151610ae68582610a81565b9450610af183610a95565b925060208a01995050600181019050610acd565b50829750879550505050505092915050565b600081519050919050565b600082825260208201905092915050565b6000819050602082019050919050565b610b4c816109a3565b82525050565b6000610b5e8383610b43565b60208301905092915050565b6000602082019050919050565b6000610b8282610b17565b610b8c8185610b22565b9350610b9783610b33565b8060005b83811015610bc8578151610baf8882610b52565b9750610bba83610b6a565b925050600181019050610b9b565b5085935050505092915050565b600081519050919050565b600082825260208201905092915050565b6000819050602082019050919050565b600081519050919050565b600082825260208201905092915050565b6000819050602082019050919050565b6000819050919050565b610c4081610c2d565b82525050565b6000610c528383610c37565b60208301905092915050565b6000602082019050919050565b6000610c7682610c01565b610c808185610c0c565b9350610c8b83610c1d565b8060005b83811015610cbc578151610ca38882610c46565b9750610cae83610c5e565b925050600181019050610c8f565b5085935050505092915050565b6000610cd58383610c6b565b905092915050565b6000602082019050919050565b6000610cf582610bd5565b610cff8185610be0565b935083602082028501610d1185610bf1565b8060005b85811015610d4d5784840389528151610d2e8582610cc9565b9450610d3983610cdd565b925060208a01995050600181019050610d15565b50829750879550505050505092915050565b600060a082019050610d7460008301886109ad565b8181036020830152610d868187610aa2565b90508181036040830152610d9a8186610aa2565b90508181036060830152610dae8185610b77565b90508181036080830152610dc28184610cea565b90509695505050505050565b6000604051905090565b600080fd5b600080fd5b600080fd5b7f4e487b7100000000000000000000000000000000000000000000000000000000600052604160045260246000fd5b610e1f82610a37565b810181811067ffffffffffffffff82111715610e3e57610e3d610de7565b5b80604052505050565b6000610e51610dce565b9050610e5d8282610e16565b919050565b600067ffffffffffffffff821115610e7d57610e7c610de7565b5b602082029050602081019050919050565b600080fd5b600067ffffffffffffffff821115610eae57610ead610de7565b5b602082029050602081019050919050565b600080fd5b600067ffffffffffffffff821115610edf57610ede610de7565b5b610ee882610a37565b9050602081019050919050565b82818337600083830152505050565b6000610f17610f1284610ec4565b610e47565b905082815260208101848484011115610f3357610f32610ebf565b5b610f3e848285610ef5565b509392505050565b600082601f830112610f5b57610f5a610de2565b5b8135610f6b848260208601610f04565b91505092915050565b6000610f87610f8284610e93565b610e47565b90508083825260208201905060208402830185811115610faa57610fa9610e8e565b5b835b81811015610ff157803567ffffffffffffffff811115610fcf57610fce610de2565b5b808601610fdc8982610f46565b85526020850194505050602081019050610fac565b5050509392505050565b600082601f8301126110105761100f610de2565b5b8135611020848260208601610f74565b91505092915050565b600061103c61103784610e62565b610e47565b9050808382526020820190506020840283018581111561105f5761105e610e8e565b5b835b818110156110a657803567ffffffffffffffff81111561108457611083610de2565b5b8086016110918982610ffb565b85526020850194505050602081019050611061565b5050509392505050565b600082601f8301126110c5576110c4610de2565b5b81356110d5848260208601611029565b91505092915050565b6000602082840312156110f4576110f3610dd8565b5b600082013567ffffffffffffffff81111561111257611111610ddd565b5b61111e848285016110b0565b91505092915050565b600060208201905061113c60008301846109ad565b92915050565b61114b816109a3565b811461115657600080fd5b50565b60008135905061116881611142565b92915050565b60006020828403121561118457611183610dd8565b5b600061119284828501611159565b91505092915050565b600082825260208201905092915050565b60006111b7826109e8565b6111c1818561119b565b93506111d1818560208601610a04565b6111da81610a37565b840191505092915050565b600060608201905081810360008301526111ff81866111ac565b9050818103602083015261121381856111ac565b905061122260408301846109ad565b949350505050565b7f4e487b7100000000000000000000000000000000000000000000000000000000600052602260045260246000fd5b6000600282049050600182168061127157607f821691505b602082108114156112855761128461122a565b5b50919050565b7f4e487b7100000000000000000000000000000000000000000000000000000000600052601160045260246000fd5b60006112c5826109a3565b91506112d0836109a3565b9250828210156112e3576112e261128b565b5b828203905092915050565b7f4e487b7100000000000000000000000000000000000000000000000000000000600052603260045260246000fd5b6000611328826109a3565b91507fffffffffffffffffffffffffffffffffffffffffffffffffffffffffffffffff82141561135b5761135a61128b565b5b600182019050919050565b600081905092915050565b600061137c826109e8565b6113868185611366565b9350611396818560208601610a04565b80840191505092915050565b60006113ae8284611371565b915081905092915050565b600082825260208201905092915050565b60006113d582610c01565b6113df81856113b9565b93506113ea83610c1d565b8060005b8381101561141b5781516114028882610c46565b975061140d83610c5e565b9250506001810190506113ee565b5085935050505092915050565b6000608082019050818103600083015261144281876111ac565b9050818103602083015261145681866111ac565b905061146560408301856109ad565b818103606083015261147781846113ca565b90509594505050505056fea26469706673582212203f4e212966a18c2567850d1de90ee593ae754da89c2cfe4768dc47f94267334c64736f6c634300080b0033",
  "immutableReferences": {},
  "source": "// SPDX-License-Identifier: MIT\r\npragma solidity ^0.8.0;\r\n\r\ncontract ValidatePatient {\r\n    uint256 public patientCount = 0;\r\n\r\n    mapping(uint256 => Patient) public patientsList;\r\n\r\n    struct Patient {\r\n        string code;\r\n        string name;\r\n        uint256 temperature;\r\n        bytes32[] hashList;\r\n    }\r\n\r\n    event PatientAdded(\r\n        string code,\r\n        string name,\r\n        uint256 temperature,\r\n        bytes32[] hashList\r\n    );\r\n\r\n    function addAllPatients(string[][] memory _patients) public {\r\n        for (uint256 i = 0; i < _patients.length; i++) {\r\n            patientCount++;\r\n            bytes32[] memory emptyArray; // Dclaration d'un tableau vide de bytes32\r\n            patientsList[patientCount] = Patient(\r\n                _patients[i][0], // code\r\n                _patients[i][1], // name\r\n                uint256(keccak256(abi.encodePacked(_patients[i][2]))), // temperature, convertir la chane en hachage\r\n                emptyArray // hashList, initialis  un tableau vide\r\n            );\r\n            emit PatientAdded(\r\n                _patients[i][0], // code\r\n                _patients[i][1], // name\r\n                uint256(keccak256(abi.encodePacked(_patients[i][2]))), // temperature\r\n                emptyArray // hashList, initialis  un tableau vide\r\n            );\r\n        }\r\n    }\r\n\r\n    // Fonction pour obtenir toutes les informations des patients\r\n    function getAllPatients() public view returns (\r\n        uint256 count,\r\n        string[] memory codes,\r\n        string[] memory names,\r\n        uint256[] memory temperatures,\r\n        bytes32[][] memory hashLists\r\n    ) {\r\n        count = patientCount;\r\n        codes = new string[](count);\r\n        names = new string[](count);\r\n        temperatures = new uint256[](count);\r\n        hashLists = new bytes32[][](count);\r\n\r\n        for (uint256 i = 1; i <= count; i++) {\r\n            codes[i - 1] = patientsList[i].code;\r\n            names[i - 1] = patientsList[i].name;\r\n            temperatures[i - 1] = patientsList[i].temperature;\r\n            hashLists[i - 1] = patientsList[i].hashList;\r\n        }\r\n    }\r\n}\r\n",
  "sourcePath": "C:\\Users\\ASUS\\PFA6.0\\Model\\Blockchain\\contracts\\ValidatePatient.sol",
  "compiler": {
    "name": "solc",
    "version": "0.8.11+commit.d7f03943.Emscripten.clang"
  },
  "schemaVersion": "3.4.4",
  "updatedAt": "2024-04-03T15:57:40.041Z",
  "devdoc": {
    "kind": "dev",
    "methods": {},
    "version": 1
  },
  "userdoc": {
    "kind": "user",
    "methods": {},
    "version": 1
  }
}