{
  "contractName": "ValidatePatient",
  "abi": [
    {
      "anonymous": false,
      "inputs": [
        {
          "indexed": false,
          "internalType": "string",
          "name": "code",
          "type": "string"
        },
        {
          "indexed": false,
          "internalType": "string",
          "name": "name",
          "type": "string"
        },
        {
          "indexed": false,
          "internalType": "uint256",
          "name": "temperature",
          "type": "uint256"
        },
        {
          "indexed": false,
          "internalType": "bytes32[]",
          "name": "hashList",
          "type": "bytes32[]"
        }
      ],
      "name": "PatientAdded",
      "type": "event"
    },
    {
      "inputs": [],
      "name": "patientCount",
      "outputs": [
        {
          "internalType": "uint256",
          "name": "",
          "type": "uint256"
        }
      ],
      "stateMutability": "view",
      "type": "function"
    },
    {
      "inputs": [
        {
          "internalType": "string",
          "name": "",
          "type": "string"
        }
      ],
      "name": "patientsByCode",
      "outputs": [
        {
          "internalType": "string",
          "name": "code",
          "type": "string"
        },
        {
          "internalType": "string",
          "name": "name",
          "type": "string"
        },
        {
          "internalType": "uint256",
          "name": "temperature",
          "type": "uint256"
        }
      ],
      "stateMutability": "view",
      "type": "function"
    },
    {
      "inputs": [
        {
          "internalType": "uint256",
          "name": "",
          "type": "uint256"
        }
      ],
      "name": "patientsList",
      "outputs": [
        {
          "internalType": "string",
          "name": "code",
          "type": "string"
        },
        {
          "internalType": "string",
          "name": "name",
          "type": "string"
        },
        {
          "internalType": "uint256",
          "name": "temperature",
          "type": "uint256"
        }
      ],
      "stateMutability": "view",
      "type": "function"
    },
    {
      "inputs": [
        {
          "internalType": "string[][]",
          "name": "_patients",
          "type": "string[][]"
        }
      ],
      "name": "addAllPatients",
      "outputs": [],
      "stateMutability": "nonpayable",
      "type": "function"
    },
    {
      "inputs": [],
      "name": "getAllPatients",
      "outputs": [
        {
          "internalType": "uint256",
          "name": "count",
          "type": "uint256"
        },
        {
          "internalType": "string[]",
          "name": "codes",
          "type": "string[]"
        },
        {
          "internalType": "string[]",
          "name": "names",
          "type": "string[]"
        },
        {
          "internalType": "uint256[]",
          "name": "temperatures",
          "type": "uint256[]"
        },
        {
          "internalType": "bytes32[][]",
          "name": "hashLists",
          "type": "bytes32[][]"
        }
      ],
      "stateMutability": "view",
      "type": "function"
    },
    {
      "inputs": [
        {
          "internalType": "string",
          "name": "_code",
          "type": "string"
        }
      ],
      "name": "getPatientByCode",
      "outputs": [
        {
          "internalType": "string",
          "name": "",
          "type": "string"
        },
        {
          "internalType": "string",
          "name": "",
          "type": "string"
        },
        {
          "internalType": "uint256",
          "name": "",
          "type": "uint256"
        },
        {
          "internalType": "bytes32[]",
          "name": "",
          "type": "bytes32[]"
        }
      ],
      "stateMutability": "view",
      "type": "function"
    }
  ],
  "bytecode": "0x60806040526000805534801561001457600080fd5b506118aa806100246000396000f3fe608060405234801561001057600080fd5b50600436106100625760003560e01c806318a231a9146100675780631d72de1f146100895780632eb1d73f146100bc578063454381cf146100d8578063a0303c411461010a578063dc65bef414610128575b600080fd5b61006f61015a565b604051610080959493929190611108565b60405180910390f35b6100a3600480360381019061009e91906112c0565b61052e565b6040516100b394939291906113c2565b60405180910390f35b6100d660048036038101906100d191906115e3565b61070c565b005b6100f260048036038101906100ed91906112c0565b6109af565b6040516101019392919061162c565b60405180910390f35b610112610aff565b60405161011f9190611671565b60405180910390f35b610142600480360381019061013d91906116b8565b610b05565b6040516101519392919061162c565b60405180910390f35b600060608060608060005494508467ffffffffffffffff81111561018157610180611195565b5b6040519080825280602002602001820160405280156101b457816020015b606081526020019060019003908161019f5790505b5093508467ffffffffffffffff8111156101d1576101d0611195565b5b60405190808252806020026020018201604052801561020457816020015b60608152602001906001900390816101ef5790505b5092508467ffffffffffffffff81111561022157610220611195565b5b60405190808252806020026020018201604052801561024f5781602001602082028036833780820191505090505b5091508467ffffffffffffffff81111561026c5761026b611195565b5b60405190808252806020026020018201604052801561029f57816020015b606081526020019060019003908161028a5790505b5090506000600190505b858111610526576001600082815260200190815260200160002060000180546102d190611714565b80601f01602080910402602001604051908101604052809291908181526020018280546102fd90611714565b801561034a5780601f1061031f5761010080835404028352916020019161034a565b820191906000526020600020905b81548152906001019060200180831161032d57829003601f168201915b50505050508560018361035d9190611775565b8151811061036e5761036d6117a9565b5b602002602001018190525060016000828152602001908152602001600020600101805461039a90611714565b80601f01602080910402602001604051908101604052809291908181526020018280546103c690611714565b80156104135780601f106103e857610100808354040283529160200191610413565b820191906000526020600020905b8154815290600101906020018083116103f657829003601f168201915b5050505050846001836104269190611775565b81518110610437576104366117a9565b5b60200260200101819052506001600082815260200190815260200160002060020154836001836104679190611775565b81518110610478576104776117a9565b5b602002602001018181525050600160008281526020019081526020016000206003018054806020026020016040519081016040528092919081815260200182805480156104e457602002820191906000526020600020905b8154815260200190600101908083116104d0575b5050505050826001836104f79190611775565b81518110610508576105076117a9565b5b6020026020010181905250808061051e906117d8565b9150506102a9565b509091929394565b606080600060606000600286604051610547919061185d565b908152602001604051809103902060405180608001604052908160008201805461057090611714565b80601f016020809104026020016040519081016040528092919081815260200182805461059c90611714565b80156105e95780601f106105be576101008083540402835291602001916105e9565b820191906000526020600020905b8154815290600101906020018083116105cc57829003601f168201915b5050505050815260200160018201805461060290611714565b80601f016020809104026020016040519081016040528092919081815260200182805461062e90611714565b801561067b5780601f106106505761010080835404028352916020019161067b565b820191906000526020600020905b81548152906001019060200180831161065e57829003601f168201915b5050505050815260200160028201548152602001600382018054806020026020016040519081016040528092919081815260200182805480156106dd57602002820191906000526020600020905b8154815260200190600101908083116106c9575b505050505081525050905080600001518160200151826040015183606001519450945094509450509193509193565b60005b81518110156109ab5760008081548092919061072a906117d8565b91905055506060604051806080016040528084848151811061074f5761074e6117a9565b5b602002602001015160008151811061076a576107696117a9565b5b6020026020010151815260200184848151811061078a576107896117a9565b5b60200260200101516001815181106107a5576107a46117a9565b5b602002602001015181526020018484815181106107c5576107c46117a9565b5b60200260200101516002815181106107e0576107df6117a9565b5b60200260200101516040516020016107f8919061185d565b6040516020818303038152906040528051906020012060001c8152602001828152506001600080548152602001908152602001600020600082015181600001908051906020019061084a929190610c3f565b506020820151816001019080519060200190610867929190610c3f565b5060408201518160020155606082015181600301908051906020019061088e929190610cc5565b509050507f2c11680bb11f2b69d44bfa48e48bbfffcf3e471db52d5b348c6b988d8c3776878383815181106108c6576108c56117a9565b5b60200260200101516000815181106108e1576108e06117a9565b5b60200260200101518484815181106108fc576108fb6117a9565b5b6020026020010151600181518110610917576109166117a9565b5b6020026020010151858581518110610932576109316117a9565b5b602002602001015160028151811061094d5761094c6117a9565b5b6020026020010151604051602001610965919061185d565b6040516020818303038152906040528051906020012060001c8460405161098f94939291906113c2565b60405180910390a15080806109a3906117d8565b91505061070f565b5050565b6002818051602081018201805184825260208301602085012081835280955050505050506000915090508060000180546109e890611714565b80601f0160208091040260200160405190810160405280929190818152602001828054610a1490611714565b8015610a615780601f10610a3657610100808354040283529160200191610a61565b820191906000526020600020905b815481529060010190602001808311610a4457829003601f168201915b505050505090806001018054610a7690611714565b80601f0160208091040260200160405190810160405280929190818152602001828054610aa290611714565b8015610aef5780601f10610ac457610100808354040283529160200191610aef565b820191906000526020600020905b815481529060010190602001808311610ad257829003601f168201915b5050505050908060020154905083565b60005481565b6001602052806000526040600020600091509050806000018054610b2890611714565b80601f0160208091040260200160405190810160405280929190818152602001828054610b5490611714565b8015610ba15780601f10610b7657610100808354040283529160200191610ba1565b820191906000526020600020905b815481529060010190602001808311610b8457829003601f168201915b505050505090806001018054610bb690611714565b80601f0160208091040260200160405190810160405280929190818152602001828054610be290611714565b8015610c2f5780601f10610c0457610100808354040283529160200191610c2f565b820191906000526020600020905b815481529060010190602001808311610c1257829003601f168201915b5050505050908060020154905083565b828054610c4b90611714565b90600052602060002090601f016020900481019282610c6d5760008555610cb4565b82601f10610c8657805160ff1916838001178555610cb4565b82800160010185558215610cb4579182015b82811115610cb3578251825591602001919060010190610c98565b5b509050610cc19190610d12565b5090565b828054828255906000526020600020908101928215610d01579160200282015b82811115610d00578251825591602001919060010190610ce5565b5b509050610d0e9190610d2f565b5090565b5b80821115610d2b576000816000905550600101610d13565b5090565b5b80821115610d48576000816000905550600101610d30565b5090565b6000819050919050565b610d5f81610d4c565b82525050565b600081519050919050565b600082825260208201905092915050565b6000819050602082019050919050565b600081519050919050565b600082825260208201905092915050565b60005b83811015610dcb578082015181840152602081019050610db0565b83811115610dda576000848401525b50505050565b6000601f19601f8301169050919050565b6000610dfc82610d91565b610e068185610d9c565b9350610e16818560208601610dad565b610e1f81610de0565b840191505092915050565b6000610e368383610df1565b905092915050565b6000602082019050919050565b6000610e5682610d65565b610e608185610d70565b935083602082028501610e7285610d81565b8060005b85811015610eae5784840389528151610e8f8582610e2a565b9450610e9a83610e3e565b925060208a01995050600181019050610e76565b50829750879550505050505092915050565b600081519050919050565b600082825260208201905092915050565b6000819050602082019050919050565b610ef581610d4c565b82525050565b6000610f078383610eec565b60208301905092915050565b6000602082019050919050565b6000610f2b82610ec0565b610f358185610ecb565b9350610f4083610edc565b8060005b83811015610f71578151610f588882610efb565b9750610f6383610f13565b925050600181019050610f44565b5085935050505092915050565b600081519050919050565b600082825260208201905092915050565b6000819050602082019050919050565b600081519050919050565b600082825260208201905092915050565b6000819050602082019050919050565b6000819050919050565b610fe981610fd6565b82525050565b6000610ffb8383610fe0565b60208301905092915050565b6000602082019050919050565b600061101f82610faa565b6110298185610fb5565b935061103483610fc6565b8060005b8381101561106557815161104c8882610fef565b975061105783611007565b925050600181019050611038565b5085935050505092915050565b600061107e8383611014565b905092915050565b6000602082019050919050565b600061109e82610f7e565b6110a88185610f89565b9350836020820285016110ba85610f9a565b8060005b858110156110f657848403895281516110d78582611072565b94506110e283611086565b925060208a019950506001810190506110be565b50829750879550505050505092915050565b600060a08201905061111d6000830188610d56565b818103602083015261112f8187610e4b565b905081810360408301526111438186610e4b565b905081810360608301526111578185610f20565b9050818103608083015261116b8184611093565b90509695505050505050565b6000604051905090565b600080fd5b600080fd5b600080fd5b600080fd5b7f4e487b7100000000000000000000000000000000000000000000000000000000600052604160045260246000fd5b6111cd82610de0565b810181811067ffffffffffffffff821117156111ec576111eb611195565b5b80604052505050565b60006111ff611177565b905061120b82826111c4565b919050565b600067ffffffffffffffff82111561122b5761122a611195565b5b61123482610de0565b9050602081019050919050565b82818337600083830152505050565b600061126361125e84611210565b6111f5565b90508281526020810184848401111561127f5761127e611190565b5b61128a848285611241565b509392505050565b600082601f8301126112a7576112a661118b565b5b81356112b7848260208601611250565b91505092915050565b6000602082840312156112d6576112d5611181565b5b600082013567ffffffffffffffff8111156112f4576112f3611186565b5b61130084828501611292565b91505092915050565b600082825260208201905092915050565b600061132582610d91565b61132f8185611309565b935061133f818560208601610dad565b61134881610de0565b840191505092915050565b600082825260208201905092915050565b600061136f82610faa565b6113798185611353565b935061138483610fc6565b8060005b838110156113b557815161139c8882610fef565b97506113a783611007565b925050600181019050611388565b5085935050505092915050565b600060808201905081810360008301526113dc818761131a565b905081810360208301526113f0818661131a565b90506113ff6040830185610d56565b81810360608301526114118184611364565b905095945050505050565b600067ffffffffffffffff82111561143757611436611195565b5b602082029050602081019050919050565b600080fd5b600067ffffffffffffffff82111561146857611467611195565b5b602082029050602081019050919050565b600061148c6114878461144d565b6111f5565b905080838252602082019050602084028301858111156114af576114ae611448565b5b835b818110156114f657803567ffffffffffffffff8111156114d4576114d361118b565b5b8086016114e18982611292565b855260208501945050506020810190506114b1565b5050509392505050565b600082601f8301126115155761151461118b565b5b8135611525848260208601611479565b91505092915050565b600061154161153c8461141c565b6111f5565b9050808382526020820190506020840283018581111561156457611563611448565b5b835b818110156115ab57803567ffffffffffffffff8111156115895761158861118b565b5b8086016115968982611500565b85526020850194505050602081019050611566565b5050509392505050565b600082601f8301126115ca576115c961118b565b5b81356115da84826020860161152e565b91505092915050565b6000602082840312156115f9576115f8611181565b5b600082013567ffffffffffffffff81111561161757611616611186565b5b611623848285016115b5565b91505092915050565b60006060820190508181036000830152611646818661131a565b9050818103602083015261165a818561131a565b90506116696040830184610d56565b949350505050565b60006020820190506116866000830184610d56565b92915050565b61169581610d4c565b81146116a057600080fd5b50565b6000813590506116b28161168c565b92915050565b6000602082840312156116ce576116cd611181565b5b60006116dc848285016116a3565b91505092915050565b7f4e487b7100000000000000000000000000000000000000000000000000000000600052602260045260246000fd5b6000600282049050600182168061172c57607f821691505b602082108114156117405761173f6116e5565b5b50919050565b7f4e487b7100000000000000000000000000000000000000000000000000000000600052601160045260246000fd5b600061178082610d4c565b915061178b83610d4c565b92508282101561179e5761179d611746565b5b828203905092915050565b7f4e487b7100000000000000000000000000000000000000000000000000000000600052603260045260246000fd5b60006117e382610d4c565b91507fffffffffffffffffffffffffffffffffffffffffffffffffffffffffffffffff82141561181657611815611746565b5b600182019050919050565b600081905092915050565b600061183782610d91565b6118418185611821565b9350611851818560208601610dad565b80840191505092915050565b6000611869828461182c565b91508190509291505056fea264697066735822122024c08e86f9a19110f4378a5b49a674d28cb142a795e13e4eb0bbcc9bbf41e5fd64736f6c634300080b0033",
  "immutableReferences": {},
  "source": "// SPDX-License-Identifier: MIT\r\npragma solidity ^0.8.0;\r\n\r\ncontract ValidatePatient {\r\n    uint256 public patientCount = 0;\r\n\r\n    mapping(uint256 => Patient) public patientsList;\r\n    mapping(string => Patient) public patientsByCode; \r\n\r\n\r\n    struct Patient {\r\n        string code;\r\n        string name;\r\n        uint256 temperature;\r\n        bytes32[] hashList;\r\n    }\r\n\r\n    event PatientAdded(\r\n        string code,\r\n        string name,\r\n        uint256 temperature,\r\n        bytes32[] hashList\r\n    );\r\n   \r\n    function addAllPatients(string[][] memory _patients) public {\r\n        for (uint256 i = 0; i < _patients.length; i++) {\r\n            patientCount++;\r\n            bytes32[] memory emptyArray; // Dclaration d'un tableau vide de bytes32\r\n            patientsList[patientCount] = Patient(\r\n                _patients[i][0], // code\r\n                _patients[i][1], // name\r\n                uint256(keccak256(abi.encodePacked(_patients[i][2]))), // temperature, convertir la chane en hachage\r\n                emptyArray // hashList, initialis  un tableau vide\r\n            );\r\n            emit PatientAdded(\r\n                _patients[i][0], // code\r\n                _patients[i][1], // name\r\n                uint256(keccak256(abi.encodePacked(_patients[i][2]))), // temperature\r\n                emptyArray // hashList, initialis  un tableau vide\r\n            );\r\n        }\r\n    }\r\n\r\n    // Fonction pour obtenir toutes les informations des patients\r\n    function getAllPatients() public view returns (\r\n        uint256 count,\r\n        string[] memory codes,\r\n        string[] memory names,\r\n        uint256[] memory temperatures,\r\n        bytes32[][] memory hashLists\r\n    ) {\r\n        count = patientCount;\r\n        codes = new string[](count);\r\n        names = new string[](count);\r\n        temperatures = new uint256[](count);\r\n        hashLists = new bytes32[][](count);\r\n\r\n        for (uint256 i = 1; i <= count; i++) {\r\n            codes[i - 1] = patientsList[i].code;\r\n            names[i - 1] = patientsList[i].name;\r\n            temperatures[i - 1] = patientsList[i].temperature;\r\n            hashLists[i - 1] = patientsList[i].hashList;\r\n        }\r\n    }\r\n\r\n\r\n      // Function to get a patient by code\r\n    function getPatientByCode(string memory _code) public view returns (string memory, string memory, uint256, bytes32[] memory) {\r\n        Patient memory patient = patientsByCode[_code];\r\n        return (patient.code, patient.name, patient.temperature, patient.hashList);\r\n    }\r\n}\r\n",
  "sourcePath": "C:\\Users\\ASUS\\PFA6.0\\Model\\Blockchain\\contracts\\ValidatePatient.sol",
  "compiler": {
    "name": "solc",
    "version": "0.8.11+commit.d7f03943.Emscripten.clang"
  },
  "schemaVersion": "3.4.4",
  "updatedAt": "2024-04-17T14:13:10.906Z",
  "devdoc": {
    "kind": "dev",
    "methods": {},
    "version": 1
  },
  "userdoc": {
    "kind": "user",
    "methods": {},
    "version": 1
  }
}