{
  "contractName": "ValidatePatient",
  "abi": [
    {
      "anonymous": false,
      "inputs": [
        {
          "indexed": false,
          "internalType": "string",
          "name": "code",
          "type": "string"
        },
        {
          "indexed": false,
          "internalType": "string",
          "name": "name",
          "type": "string"
        },
        {
          "indexed": false,
          "internalType": "uint256",
          "name": "temperature",
          "type": "uint256"
        },
        {
          "indexed": false,
          "internalType": "bytes32[]",
          "name": "hashList",
          "type": "bytes32[]"
        }
      ],
      "name": "PatientAdded",
      "type": "event"
    },
    {
      "inputs": [],
      "name": "patientCount",
      "outputs": [
        {
          "internalType": "uint256",
          "name": "",
          "type": "uint256"
        }
      ],
      "stateMutability": "view",
      "type": "function"
    },
    {
      "inputs": [
        {
          "internalType": "uint256",
          "name": "",
          "type": "uint256"
        }
      ],
      "name": "patientsList",
      "outputs": [
        {
          "internalType": "string",
          "name": "code",
          "type": "string"
        },
        {
          "internalType": "string",
          "name": "name",
          "type": "string"
        },
        {
          "internalType": "uint256",
          "name": "temperature",
          "type": "uint256"
        }
      ],
      "stateMutability": "view",
      "type": "function"
    },
    {
      "inputs": [
        {
          "internalType": "string[][]",
          "name": "_patients",
          "type": "string[][]"
        }
      ],
      "name": "addAllPatients",
      "outputs": [],
      "stateMutability": "nonpayable",
      "type": "function"
    },
    {
      "inputs": [],
      "name": "getAllPatients",
      "outputs": [
        {
          "internalType": "uint256",
          "name": "count",
          "type": "uint256"
        },
        {
          "internalType": "string[]",
          "name": "codes",
          "type": "string[]"
        },
        {
          "internalType": "string[]",
          "name": "names",
          "type": "string[]"
        },
        {
          "internalType": "uint256[]",
          "name": "temperatures",
          "type": "uint256[]"
        },
        {
          "internalType": "bytes32[][]",
          "name": "hashLists",
          "type": "bytes32[][]"
        }
      ],
      "stateMutability": "view",
      "type": "function"
    },
    {
      "inputs": [
        {
          "internalType": "string",
          "name": "_code",
          "type": "string"
        },
        {
          "internalType": "uint256",
          "name": "_temperature",
          "type": "uint256"
        }
      ],
      "name": "setTemperature",
      "outputs": [],
      "stateMutability": "nonpayable",
      "type": "function"
    },
    {
      "inputs": [
        {
          "internalType": "string",
          "name": "_code",
          "type": "string"
        }
      ],
      "name": "getTemperature",
      "outputs": [
        {
          "internalType": "uint256",
          "name": "",
          "type": "uint256"
        }
      ],
      "stateMutability": "view",
      "type": "function"
    }
  ],
  "bytecode": "0x60806040526000805534801561001457600080fd5b506117c3806100246000396000f3fe608060405234801561001057600080fd5b50600436106100625760003560e01c806318a231a9146100675780632eb1d73f1461008957806340ff3330146100a557806394d02941146100c1578063a0303c41146100f1578063dc65bef41461010f575b600080fd5b61006f610141565b604051610080959493929190610f59565b60405180910390f35b6100a3600480360381019061009e91906112d8565b610515565b005b6100bf60048036038101906100ba919061134d565b610812565b005b6100db60048036038101906100d691906113a9565b6108b1565b6040516100e891906113f2565b60405180910390f35b6100f9610950565b60405161010691906113f2565b60405180910390f35b6101296004803603810190610124919061140d565b610956565b60405161013893929190611484565b60405180910390f35b600060608060608060005494508467ffffffffffffffff81111561016857610167610fe1565b5b60405190808252806020026020018201604052801561019b57816020015b60608152602001906001900390816101865790505b5093508467ffffffffffffffff8111156101b8576101b7610fe1565b5b6040519080825280602002602001820160405280156101eb57816020015b60608152602001906001900390816101d65790505b5092508467ffffffffffffffff81111561020857610207610fe1565b5b6040519080825280602002602001820160405280156102365781602001602082028036833780820191505090505b5091508467ffffffffffffffff81111561025357610252610fe1565b5b60405190808252806020026020018201604052801561028657816020015b60608152602001906001900390816102715790505b5090506000600190505b85811161050d576001600082815260200190815260200160002060000180546102b8906114f8565b80601f01602080910402602001604051908101604052809291908181526020018280546102e4906114f8565b80156103315780601f1061030657610100808354040283529160200191610331565b820191906000526020600020905b81548152906001019060200180831161031457829003601f168201915b5050505050856001836103449190611559565b815181106103555761035461158d565b5b6020026020010181905250600160008281526020019081526020016000206001018054610381906114f8565b80601f01602080910402602001604051908101604052809291908181526020018280546103ad906114f8565b80156103fa5780601f106103cf576101008083540402835291602001916103fa565b820191906000526020600020905b8154815290600101906020018083116103dd57829003601f168201915b50505050508460018361040d9190611559565b8151811061041e5761041d61158d565b5b602002602001018190525060016000828152602001908152602001600020600201548360018361044e9190611559565b8151811061045f5761045e61158d565b5b602002602001018181525050600160008281526020019081526020016000206003018054806020026020016040519081016040528092919081815260200182805480156104cb57602002820191906000526020600020905b8154815260200190600101908083116104b7575b5050505050826001836104de9190611559565b815181106104ef576104ee61158d565b5b60200260200101819052508080610505906115bc565b915050610290565b509091929394565b60005b815181101561080e57600080815480929190610533906115bc565b9190505550606060405180608001604052808484815181106105585761055761158d565b5b60200260200101516000815181106105735761057261158d565b5b602002602001015181526020018484815181106105935761059261158d565b5b60200260200101516001815181106105ae576105ad61158d565b5b602002602001015181526020018484815181106105ce576105cd61158d565b5b60200260200101516002815181106105e9576105e861158d565b5b60200260200101516040516020016106019190611641565b6040516020818303038152906040528051906020012060001c81526020018281525060016000805481526020019081526020016000206000820151816000019080519060200190610653929190610a90565b506020820151816001019080519060200190610670929190610a90565b50604082015181600201556060820151816003019080519060200190610697929190610b16565b5090505060005460028484815181106106b3576106b261158d565b5b60200260200101516000815181106106ce576106cd61158d565b5b60200260200101516040516106e39190611641565b9081526020016040518091039020819055507f2c11680bb11f2b69d44bfa48e48bbfffcf3e471db52d5b348c6b988d8c3776878383815181106107295761072861158d565b5b60200260200101516000815181106107445761074361158d565b5b602002602001015184848151811061075f5761075e61158d565b5b602002602001015160018151811061077a5761077961158d565b5b60200260200101518585815181106107955761079461158d565b5b60200260200101516002815181106107b0576107af61158d565b5b60200260200101516040516020016107c89190611641565b6040516020818303038152906040528051906020012060001c846040516107f294939291906116c7565b60405180910390a1508080610806906115bc565b915050610518565b5050565b60006002836040516108249190611641565b9081526020016040518091039020541415610874576040517f08c379a000000000000000000000000000000000000000000000000000000000815260040161086b9061176d565b60405180910390fd5b80600160006002856040516108899190611641565b9081526020016040518091039020548152602001908152602001600020600201819055505050565b6000806002836040516108c49190611641565b9081526020016040518091039020541415610914576040517f08c379a000000000000000000000000000000000000000000000000000000000815260040161090b9061176d565b60405180910390fd5b600160006002846040516109289190611641565b9081526020016040518091039020548152602001908152602001600020600201549050919050565b60005481565b6001602052806000526040600020600091509050806000018054610979906114f8565b80601f01602080910402602001604051908101604052809291908181526020018280546109a5906114f8565b80156109f25780601f106109c7576101008083540402835291602001916109f2565b820191906000526020600020905b8154815290600101906020018083116109d557829003601f168201915b505050505090806001018054610a07906114f8565b80601f0160208091040260200160405190810160405280929190818152602001828054610a33906114f8565b8015610a805780601f10610a5557610100808354040283529160200191610a80565b820191906000526020600020905b815481529060010190602001808311610a6357829003601f168201915b5050505050908060020154905083565b828054610a9c906114f8565b90600052602060002090601f016020900481019282610abe5760008555610b05565b82601f10610ad757805160ff1916838001178555610b05565b82800160010185558215610b05579182015b82811115610b04578251825591602001919060010190610ae9565b5b509050610b129190610b63565b5090565b828054828255906000526020600020908101928215610b52579160200282015b82811115610b51578251825591602001919060010190610b36565b5b509050610b5f9190610b80565b5090565b5b80821115610b7c576000816000905550600101610b64565b5090565b5b80821115610b99576000816000905550600101610b81565b5090565b6000819050919050565b610bb081610b9d565b82525050565b600081519050919050565b600082825260208201905092915050565b6000819050602082019050919050565b600081519050919050565b600082825260208201905092915050565b60005b83811015610c1c578082015181840152602081019050610c01565b83811115610c2b576000848401525b50505050565b6000601f19601f8301169050919050565b6000610c4d82610be2565b610c578185610bed565b9350610c67818560208601610bfe565b610c7081610c31565b840191505092915050565b6000610c878383610c42565b905092915050565b6000602082019050919050565b6000610ca782610bb6565b610cb18185610bc1565b935083602082028501610cc385610bd2565b8060005b85811015610cff5784840389528151610ce08582610c7b565b9450610ceb83610c8f565b925060208a01995050600181019050610cc7565b50829750879550505050505092915050565b600081519050919050565b600082825260208201905092915050565b6000819050602082019050919050565b610d4681610b9d565b82525050565b6000610d588383610d3d565b60208301905092915050565b6000602082019050919050565b6000610d7c82610d11565b610d868185610d1c565b9350610d9183610d2d565b8060005b83811015610dc2578151610da98882610d4c565b9750610db483610d64565b925050600181019050610d95565b5085935050505092915050565b600081519050919050565b600082825260208201905092915050565b6000819050602082019050919050565b600081519050919050565b600082825260208201905092915050565b6000819050602082019050919050565b6000819050919050565b610e3a81610e27565b82525050565b6000610e4c8383610e31565b60208301905092915050565b6000602082019050919050565b6000610e7082610dfb565b610e7a8185610e06565b9350610e8583610e17565b8060005b83811015610eb6578151610e9d8882610e40565b9750610ea883610e58565b925050600181019050610e89565b5085935050505092915050565b6000610ecf8383610e65565b905092915050565b6000602082019050919050565b6000610eef82610dcf565b610ef98185610dda565b935083602082028501610f0b85610deb565b8060005b85811015610f475784840389528151610f288582610ec3565b9450610f3383610ed7565b925060208a01995050600181019050610f0f565b50829750879550505050505092915050565b600060a082019050610f6e6000830188610ba7565b8181036020830152610f808187610c9c565b90508181036040830152610f948186610c9c565b90508181036060830152610fa88185610d71565b90508181036080830152610fbc8184610ee4565b90509695505050505050565b6000604051905090565b600080fd5b600080fd5b600080fd5b7f4e487b7100000000000000000000000000000000000000000000000000000000600052604160045260246000fd5b61101982610c31565b810181811067ffffffffffffffff8211171561103857611037610fe1565b5b80604052505050565b600061104b610fc8565b90506110578282611010565b919050565b600067ffffffffffffffff82111561107757611076610fe1565b5b602082029050602081019050919050565b600080fd5b600067ffffffffffffffff8211156110a8576110a7610fe1565b5b602082029050602081019050919050565b600080fd5b600067ffffffffffffffff8211156110d9576110d8610fe1565b5b6110e282610c31565b9050602081019050919050565b82818337600083830152505050565b600061111161110c846110be565b611041565b90508281526020810184848401111561112d5761112c6110b9565b5b6111388482856110ef565b509392505050565b600082601f83011261115557611154610fdc565b5b81356111658482602086016110fe565b91505092915050565b600061118161117c8461108d565b611041565b905080838252602082019050602084028301858111156111a4576111a3611088565b5b835b818110156111eb57803567ffffffffffffffff8111156111c9576111c8610fdc565b5b8086016111d68982611140565b855260208501945050506020810190506111a6565b5050509392505050565b600082601f83011261120a57611209610fdc565b5b813561121a84826020860161116e565b91505092915050565b60006112366112318461105c565b611041565b9050808382526020820190506020840283018581111561125957611258611088565b5b835b818110156112a057803567ffffffffffffffff81111561127e5761127d610fdc565b5b80860161128b89826111f5565b8552602085019450505060208101905061125b565b5050509392505050565b600082601f8301126112bf576112be610fdc565b5b81356112cf848260208601611223565b91505092915050565b6000602082840312156112ee576112ed610fd2565b5b600082013567ffffffffffffffff81111561130c5761130b610fd7565b5b611318848285016112aa565b91505092915050565b61132a81610b9d565b811461133557600080fd5b50565b60008135905061134781611321565b92915050565b6000806040838503121561136457611363610fd2565b5b600083013567ffffffffffffffff81111561138257611381610fd7565b5b61138e85828601611140565b925050602061139f85828601611338565b9150509250929050565b6000602082840312156113bf576113be610fd2565b5b600082013567ffffffffffffffff8111156113dd576113dc610fd7565b5b6113e984828501611140565b91505092915050565b60006020820190506114076000830184610ba7565b92915050565b60006020828403121561142357611422610fd2565b5b600061143184828501611338565b91505092915050565b600082825260208201905092915050565b600061145682610be2565b611460818561143a565b9350611470818560208601610bfe565b61147981610c31565b840191505092915050565b6000606082019050818103600083015261149e818661144b565b905081810360208301526114b2818561144b565b90506114c16040830184610ba7565b949350505050565b7f4e487b7100000000000000000000000000000000000000000000000000000000600052602260045260246000fd5b6000600282049050600182168061151057607f821691505b60208210811415611524576115236114c9565b5b50919050565b7f4e487b7100000000000000000000000000000000000000000000000000000000600052601160045260246000fd5b600061156482610b9d565b915061156f83610b9d565b9250828210156115825761158161152a565b5b828203905092915050565b7f4e487b7100000000000000000000000000000000000000000000000000000000600052603260045260246000fd5b60006115c782610b9d565b91507fffffffffffffffffffffffffffffffffffffffffffffffffffffffffffffffff8214156115fa576115f961152a565b5b600182019050919050565b600081905092915050565b600061161b82610be2565b6116258185611605565b9350611635818560208601610bfe565b80840191505092915050565b600061164d8284611610565b915081905092915050565b600082825260208201905092915050565b600061167482610dfb565b61167e8185611658565b935061168983610e17565b8060005b838110156116ba5781516116a18882610e40565b97506116ac83610e58565b92505060018101905061168d565b5085935050505092915050565b600060808201905081810360008301526116e1818761144b565b905081810360208301526116f5818661144b565b90506117046040830185610ba7565b81810360608301526117168184611669565b905095945050505050565b7f50617469656e74206e6f7420666f756e64000000000000000000000000000000600082015250565b600061175760118361143a565b915061176282611721565b602082019050919050565b600060208201905081810360008301526117868161174a565b905091905056fea2646970667358221220444692f040decce3514700f481aae1f0bfe48ffcb009d38c3e8829714d3e082864736f6c634300080b0033",
  "immutableReferences": {},
  "source": "// SPDX-License-Identifier: MIT\r\npragma solidity ^0.8.0;\r\n\r\ncontract ValidatePatient {\r\n    uint256 public patientCount = 0;\r\n    mapping(uint256 => Patient) public patientsList;\r\n    mapping(string => uint256) private patientIndex; // Mapping pour stocker l'indice du patient par son code\r\n\r\n    struct Patient {\r\n        string code;\r\n        string name;\r\n        uint256 temperature;\r\n        bytes32[] hashList;\r\n    }\r\n    \r\n\r\n    event PatientAdded(\r\n        string code,\r\n        string name,\r\n        uint256 temperature,\r\n        bytes32[] hashList\r\n    );\r\n   \r\n    function addAllPatients(string[][] memory _patients) public {\r\n        for (uint256 i = 0; i < _patients.length; i++) {\r\n            patientCount++;\r\n            bytes32[] memory emptyArray; // Dclaration d'un tableau vide de bytes32\r\n            patientsList[patientCount] = Patient(\r\n                _patients[i][0], // code\r\n                _patients[i][1], // name\r\n                uint256(keccak256(abi.encodePacked(_patients[i][2]))), // temperature, convertir la chane en hachage\r\n                emptyArray // hashList, initialis  un tableau vide\r\n            );\r\n            patientIndex[_patients[i][0]] = patientCount; // Mise  jour du mapping patientIndex\r\n\r\n            emit PatientAdded(\r\n                _patients[i][0], // code\r\n                _patients[i][1], // name\r\n                uint256(keccak256(abi.encodePacked(_patients[i][2]))), // temperature\r\n                emptyArray // hashList, initialis  un tableau vide\r\n            );\r\n        }\r\n    }\r\n\r\n    // Fonction pour obtenir toutes les informations des patients\r\n    function getAllPatients() public view returns (\r\n        uint256 count,\r\n        string[] memory codes,\r\n        string[] memory names,\r\n        uint256[] memory temperatures,\r\n        bytes32[][] memory hashLists\r\n    ) {\r\n        count = patientCount;\r\n        codes = new string[](count);\r\n        names = new string[](count);\r\n        temperatures = new uint256[](count);\r\n        hashLists = new bytes32[][](count);\r\n\r\n        for (uint256 i = 1; i <= count; i++) {\r\n            codes[i - 1] = patientsList[i].code;\r\n            names[i - 1] = patientsList[i].name;\r\n            temperatures[i - 1] = patientsList[i].temperature;\r\n            hashLists[i - 1] = patientsList[i].hashList;\r\n        }\r\n    }\r\n\r\n\r\n    function setTemperature(string memory _code, uint256 _temperature) public {\r\n        require(patientIndex[_code] != 0, \"Patient not found\"); // Vrifie si le patient existe\r\n        patientsList[patientIndex[_code]].temperature = _temperature; // Met  jour la temprature du patient\r\n    }\r\n\r\n    function getTemperature(string memory _code) public view returns (uint256) {\r\n        require(patientIndex[_code] != 0, \"Patient not found\"); // Vrifie si le patient existe\r\n        return patientsList[patientIndex[_code]].temperature; // Rcupre la temprature du patient\r\n    }\r\n\r\n\r\n}\r\n\r\n\r\n\r\n",
  "sourcePath": "C:\\Users\\ASUS\\PFA6.0\\Model\\Blockchain\\contracts\\ValidatePatient.sol",
  "compiler": {
    "name": "solc",
    "version": "0.8.11+commit.d7f03943.Emscripten.clang"
  },
  "schemaVersion": "3.4.4",
  "updatedAt": "2024-04-20T17:22:58.528Z",
  "devdoc": {
    "kind": "dev",
    "methods": {},
    "version": 1
  },
  "userdoc": {
    "kind": "user",
    "methods": {},
    "version": 1
  }
}