{
  "contractName": "ValidatePatient",
  "abi": [
    {
      "anonymous": false,
      "inputs": [
        {
          "indexed": false,
          "internalType": "string",
          "name": "code",
          "type": "string"
        },
        {
          "indexed": false,
          "internalType": "string",
          "name": "name",
          "type": "string"
        },
        {
          "indexed": false,
          "internalType": "uint256",
          "name": "temperature",
          "type": "uint256"
        },
        {
          "indexed": false,
          "internalType": "bytes32[]",
          "name": "hashList",
          "type": "bytes32[]"
        }
      ],
      "name": "PatientAdded",
      "type": "event"
    },
    {
      "inputs": [],
      "name": "patientCount",
      "outputs": [
        {
          "internalType": "uint256",
          "name": "",
          "type": "uint256"
        }
      ],
      "stateMutability": "view",
      "type": "function"
    },
    {
      "inputs": [
        {
          "internalType": "string",
          "name": "",
          "type": "string"
        }
      ],
      "name": "patientIds",
      "outputs": [
        {
          "internalType": "uint256",
          "name": "",
          "type": "uint256"
        }
      ],
      "stateMutability": "view",
      "type": "function"
    },
    {
      "inputs": [
        {
          "internalType": "uint256",
          "name": "",
          "type": "uint256"
        }
      ],
      "name": "patientsList",
      "outputs": [
        {
          "internalType": "string",
          "name": "code",
          "type": "string"
        },
        {
          "internalType": "string",
          "name": "name",
          "type": "string"
        },
        {
          "internalType": "uint256",
          "name": "temperature",
          "type": "uint256"
        }
      ],
      "stateMutability": "view",
      "type": "function"
    },
    {
      "inputs": [
        {
          "internalType": "string[][]",
          "name": "_patients",
          "type": "string[][]"
        }
      ],
      "name": "addAllPatients",
      "outputs": [],
      "stateMutability": "nonpayable",
      "type": "function"
    },
    {
      "inputs": [],
      "name": "getAllPatients",
      "outputs": [
        {
          "internalType": "uint256",
          "name": "count",
          "type": "uint256"
        },
        {
          "internalType": "string[]",
          "name": "codes",
          "type": "string[]"
        },
        {
          "internalType": "string[]",
          "name": "names",
          "type": "string[]"
        },
        {
          "internalType": "uint256[]",
          "name": "temperatures",
          "type": "uint256[]"
        },
        {
          "internalType": "bytes32[][]",
          "name": "hashLists",
          "type": "bytes32[][]"
        }
      ],
      "stateMutability": "view",
      "type": "function"
    },
    {
      "inputs": [
        {
          "internalType": "string",
          "name": "_code",
          "type": "string"
        },
        {
          "internalType": "uint256",
          "name": "_temperature",
          "type": "uint256"
        }
      ],
      "name": "setTemperature",
      "outputs": [],
      "stateMutability": "nonpayable",
      "type": "function"
    }
  ],
  "bytecode": "0x60806040526000805534801561001457600080fd5b5061173a806100246000396000f3fe608060405234801561001057600080fd5b50600436106100625760003560e01c806318a231a9146100675780632eb1d73f1461008957806340ff3330146100a557806379791e5b146100c1578063a0303c41146100f1578063dc65bef41461010f575b600080fd5b61006f610141565b604051610080959493929190610ed0565b60405180910390f35b6100a3600480360381019061009e919061124f565b610515565b005b6100bf60048036038101906100ba91906112c4565b610812565b005b6100db60048036038101906100d69190611320565b610899565b6040516100e89190611369565b60405180910390f35b6100f96108c7565b6040516101069190611369565b60405180910390f35b61012960048036038101906101249190611384565b6108cd565b604051610138939291906113fb565b60405180910390f35b600060608060608060005494508467ffffffffffffffff81111561016857610167610f58565b5b60405190808252806020026020018201604052801561019b57816020015b60608152602001906001900390816101865790505b5093508467ffffffffffffffff8111156101b8576101b7610f58565b5b6040519080825280602002602001820160405280156101eb57816020015b60608152602001906001900390816101d65790505b5092508467ffffffffffffffff81111561020857610207610f58565b5b6040519080825280602002602001820160405280156102365781602001602082028036833780820191505090505b5091508467ffffffffffffffff81111561025357610252610f58565b5b60405190808252806020026020018201604052801561028657816020015b60608152602001906001900390816102715790505b5090506000600190505b85811161050d576001600082815260200190815260200160002060000180546102b89061146f565b80601f01602080910402602001604051908101604052809291908181526020018280546102e49061146f565b80156103315780601f1061030657610100808354040283529160200191610331565b820191906000526020600020905b81548152906001019060200180831161031457829003601f168201915b50505050508560018361034491906114d0565b8151811061035557610354611504565b5b60200260200101819052506001600082815260200190815260200160002060010180546103819061146f565b80601f01602080910402602001604051908101604052809291908181526020018280546103ad9061146f565b80156103fa5780601f106103cf576101008083540402835291602001916103fa565b820191906000526020600020905b8154815290600101906020018083116103dd57829003601f168201915b50505050508460018361040d91906114d0565b8151811061041e5761041d611504565b5b602002602001018190525060016000828152602001908152602001600020600201548360018361044e91906114d0565b8151811061045f5761045e611504565b5b602002602001018181525050600160008281526020019081526020016000206003018054806020026020016040519081016040528092919081815260200182805480156104cb57602002820191906000526020600020905b8154815260200190600101908083116104b7575b5050505050826001836104de91906114d0565b815181106104ef576104ee611504565b5b6020026020010181905250808061050590611533565b915050610290565b509091929394565b60005b815181101561080e5760008081548092919061053390611533565b91905055506060604051806080016040528084848151811061055857610557611504565b5b602002602001015160008151811061057357610572611504565b5b6020026020010151815260200184848151811061059357610592611504565b5b60200260200101516001815181106105ae576105ad611504565b5b602002602001015181526020018484815181106105ce576105cd611504565b5b60200260200101516002815181106105e9576105e8611504565b5b602002602001015160405160200161060191906115b8565b6040516020818303038152906040528051906020012060001c81526020018281525060016000805481526020019081526020016000206000820151816000019080519060200190610653929190610a07565b506020820151816001019080519060200190610670929190610a07565b50604082015181600201556060820151816003019080519060200190610697929190610a8d565b5090505060005460028484815181106106b3576106b2611504565b5b60200260200101516000815181106106ce576106cd611504565b5b60200260200101516040516106e391906115b8565b9081526020016040518091039020819055507f2c11680bb11f2b69d44bfa48e48bbfffcf3e471db52d5b348c6b988d8c37768783838151811061072957610728611504565b5b602002602001015160008151811061074457610743611504565b5b602002602001015184848151811061075f5761075e611504565b5b602002602001015160018151811061077a57610779611504565b5b602002602001015185858151811061079557610794611504565b5b60200260200101516002815181106107b0576107af611504565b5b60200260200101516040516020016107c891906115b8565b6040516020818303038152906040528051906020012060001c846040516107f2949392919061163e565b60405180910390a150808061080690611533565b915050610518565b5050565b600060028360405161082491906115b8565b90815260200160405180910390205490506000811415610879576040517f08c379a0000000000000000000000000000000000000000000000000000000008152600401610870906116e4565b60405180910390fd5b816001600083815260200190815260200160002060020181905550505050565b6002818051602081018201805184825260208301602085012081835280955050505050506000915090505481565b60005481565b60016020528060005260406000206000915090508060000180546108f09061146f565b80601f016020809104026020016040519081016040528092919081815260200182805461091c9061146f565b80156109695780601f1061093e57610100808354040283529160200191610969565b820191906000526020600020905b81548152906001019060200180831161094c57829003601f168201915b50505050509080600101805461097e9061146f565b80601f01602080910402602001604051908101604052809291908181526020018280546109aa9061146f565b80156109f75780601f106109cc576101008083540402835291602001916109f7565b820191906000526020600020905b8154815290600101906020018083116109da57829003601f168201915b5050505050908060020154905083565b828054610a139061146f565b90600052602060002090601f016020900481019282610a355760008555610a7c565b82601f10610a4e57805160ff1916838001178555610a7c565b82800160010185558215610a7c579182015b82811115610a7b578251825591602001919060010190610a60565b5b509050610a899190610ada565b5090565b828054828255906000526020600020908101928215610ac9579160200282015b82811115610ac8578251825591602001919060010190610aad565b5b509050610ad69190610af7565b5090565b5b80821115610af3576000816000905550600101610adb565b5090565b5b80821115610b10576000816000905550600101610af8565b5090565b6000819050919050565b610b2781610b14565b82525050565b600081519050919050565b600082825260208201905092915050565b6000819050602082019050919050565b600081519050919050565b600082825260208201905092915050565b60005b83811015610b93578082015181840152602081019050610b78565b83811115610ba2576000848401525b50505050565b6000601f19601f8301169050919050565b6000610bc482610b59565b610bce8185610b64565b9350610bde818560208601610b75565b610be781610ba8565b840191505092915050565b6000610bfe8383610bb9565b905092915050565b6000602082019050919050565b6000610c1e82610b2d565b610c288185610b38565b935083602082028501610c3a85610b49565b8060005b85811015610c765784840389528151610c578582610bf2565b9450610c6283610c06565b925060208a01995050600181019050610c3e565b50829750879550505050505092915050565b600081519050919050565b600082825260208201905092915050565b6000819050602082019050919050565b610cbd81610b14565b82525050565b6000610ccf8383610cb4565b60208301905092915050565b6000602082019050919050565b6000610cf382610c88565b610cfd8185610c93565b9350610d0883610ca4565b8060005b83811015610d39578151610d208882610cc3565b9750610d2b83610cdb565b925050600181019050610d0c565b5085935050505092915050565b600081519050919050565b600082825260208201905092915050565b6000819050602082019050919050565b600081519050919050565b600082825260208201905092915050565b6000819050602082019050919050565b6000819050919050565b610db181610d9e565b82525050565b6000610dc38383610da8565b60208301905092915050565b6000602082019050919050565b6000610de782610d72565b610df18185610d7d565b9350610dfc83610d8e565b8060005b83811015610e2d578151610e148882610db7565b9750610e1f83610dcf565b925050600181019050610e00565b5085935050505092915050565b6000610e468383610ddc565b905092915050565b6000602082019050919050565b6000610e6682610d46565b610e708185610d51565b935083602082028501610e8285610d62565b8060005b85811015610ebe5784840389528151610e9f8582610e3a565b9450610eaa83610e4e565b925060208a01995050600181019050610e86565b50829750879550505050505092915050565b600060a082019050610ee56000830188610b1e565b8181036020830152610ef78187610c13565b90508181036040830152610f0b8186610c13565b90508181036060830152610f1f8185610ce8565b90508181036080830152610f338184610e5b565b90509695505050505050565b6000604051905090565b600080fd5b600080fd5b600080fd5b7f4e487b7100000000000000000000000000000000000000000000000000000000600052604160045260246000fd5b610f9082610ba8565b810181811067ffffffffffffffff82111715610faf57610fae610f58565b5b80604052505050565b6000610fc2610f3f565b9050610fce8282610f87565b919050565b600067ffffffffffffffff821115610fee57610fed610f58565b5b602082029050602081019050919050565b600080fd5b600067ffffffffffffffff82111561101f5761101e610f58565b5b602082029050602081019050919050565b600080fd5b600067ffffffffffffffff8211156110505761104f610f58565b5b61105982610ba8565b9050602081019050919050565b82818337600083830152505050565b600061108861108384611035565b610fb8565b9050828152602081018484840111156110a4576110a3611030565b5b6110af848285611066565b509392505050565b600082601f8301126110cc576110cb610f53565b5b81356110dc848260208601611075565b91505092915050565b60006110f86110f384611004565b610fb8565b9050808382526020820190506020840283018581111561111b5761111a610fff565b5b835b8181101561116257803567ffffffffffffffff8111156111405761113f610f53565b5b80860161114d89826110b7565b8552602085019450505060208101905061111d565b5050509392505050565b600082601f83011261118157611180610f53565b5b81356111918482602086016110e5565b91505092915050565b60006111ad6111a884610fd3565b610fb8565b905080838252602082019050602084028301858111156111d0576111cf610fff565b5b835b8181101561121757803567ffffffffffffffff8111156111f5576111f4610f53565b5b808601611202898261116c565b855260208501945050506020810190506111d2565b5050509392505050565b600082601f83011261123657611235610f53565b5b813561124684826020860161119a565b91505092915050565b60006020828403121561126557611264610f49565b5b600082013567ffffffffffffffff81111561128357611282610f4e565b5b61128f84828501611221565b91505092915050565b6112a181610b14565b81146112ac57600080fd5b50565b6000813590506112be81611298565b92915050565b600080604083850312156112db576112da610f49565b5b600083013567ffffffffffffffff8111156112f9576112f8610f4e565b5b611305858286016110b7565b9250506020611316858286016112af565b9150509250929050565b60006020828403121561133657611335610f49565b5b600082013567ffffffffffffffff81111561135457611353610f4e565b5b611360848285016110b7565b91505092915050565b600060208201905061137e6000830184610b1e565b92915050565b60006020828403121561139a57611399610f49565b5b60006113a8848285016112af565b91505092915050565b600082825260208201905092915050565b60006113cd82610b59565b6113d781856113b1565b93506113e7818560208601610b75565b6113f081610ba8565b840191505092915050565b6000606082019050818103600083015261141581866113c2565b9050818103602083015261142981856113c2565b90506114386040830184610b1e565b949350505050565b7f4e487b7100000000000000000000000000000000000000000000000000000000600052602260045260246000fd5b6000600282049050600182168061148757607f821691505b6020821081141561149b5761149a611440565b5b50919050565b7f4e487b7100000000000000000000000000000000000000000000000000000000600052601160045260246000fd5b60006114db82610b14565b91506114e683610b14565b9250828210156114f9576114f86114a1565b5b828203905092915050565b7f4e487b7100000000000000000000000000000000000000000000000000000000600052603260045260246000fd5b600061153e82610b14565b91507fffffffffffffffffffffffffffffffffffffffffffffffffffffffffffffffff821415611571576115706114a1565b5b600182019050919050565b600081905092915050565b600061159282610b59565b61159c818561157c565b93506115ac818560208601610b75565b80840191505092915050565b60006115c48284611587565b915081905092915050565b600082825260208201905092915050565b60006115eb82610d72565b6115f581856115cf565b935061160083610d8e565b8060005b838110156116315781516116188882610db7565b975061162383610dcf565b925050600181019050611604565b5085935050505092915050565b6000608082019050818103600083015261165881876113c2565b9050818103602083015261166c81866113c2565b905061167b6040830185610b1e565b818103606083015261168d81846115e0565b905095945050505050565b7f50617469656e74206e6f7420666f756e64000000000000000000000000000000600082015250565b60006116ce6011836113b1565b91506116d982611698565b602082019050919050565b600060208201905081810360008301526116fd816116c1565b905091905056fea26469706673582212201828ec263a586801a4422d25f4b4089768f43187363036e06c63a69fe85f72a364736f6c634300080b0033",
  "immutableReferences": {},
  "source": "// SPDX-License-Identifier: MIT\r\npragma solidity ^0.8.0;\r\n\r\ncontract ValidatePatient {\r\n    uint256 public patientCount = 0;\r\n    mapping(uint256 => Patient) public patientsList;\r\n    mapping(string => uint256) public patientIds; // Mapping pour stocker l'ID du patient en fonction de son code\r\n\r\n    struct Patient {\r\n        string code;\r\n        string name;\r\n        uint256 temperature;\r\n        bytes32[] hashList;\r\n    }\r\n    \r\n\r\n    event PatientAdded(\r\n        string code,\r\n        string name,\r\n        uint256 temperature,\r\n        bytes32[] hashList\r\n    );\r\n   \r\n    function addAllPatients(string[][] memory _patients) public {\r\n        for (uint256 i = 0; i < _patients.length; i++) {\r\n            patientCount++;\r\n            bytes32[] memory emptyArray; // Dclaration d'un tableau vide de bytes32\r\n            patientsList[patientCount] = Patient(\r\n                _patients[i][0], // code\r\n                _patients[i][1], // name\r\n                uint256(keccak256(abi.encodePacked(_patients[i][2]))), // temperature, convertir la chane en hachage\r\n                emptyArray // hashList, initialis  un tableau vide\r\n            );\r\n            patientIds[_patients[i][0]] = patientCount;\r\n\r\n            emit PatientAdded(\r\n                _patients[i][0], // code\r\n                _patients[i][1], // name\r\n                uint256(keccak256(abi.encodePacked(_patients[i][2]))), // temperature\r\n                emptyArray // hashList, initialis  un tableau vide\r\n            );\r\n        }\r\n    }\r\n\r\n    // Fonction pour obtenir toutes les informations des patients\r\n    function getAllPatients() public view returns (\r\n        uint256 count,\r\n        string[] memory codes,\r\n        string[] memory names,\r\n        uint256[] memory temperatures,\r\n        bytes32[][] memory hashLists\r\n    ) {\r\n        count = patientCount;\r\n        codes = new string[](count);\r\n        names = new string[](count);\r\n        temperatures = new uint256[](count);\r\n        hashLists = new bytes32[][](count);\r\n\r\n        for (uint256 i = 1; i <= count; i++) {\r\n            codes[i - 1] = patientsList[i].code;\r\n            names[i - 1] = patientsList[i].name;\r\n            temperatures[i - 1] = patientsList[i].temperature;\r\n            hashLists[i - 1] = patientsList[i].hashList;\r\n        }\r\n    }\r\n\r\n\r\n  function setTemperature(string memory _code, uint256 _temperature) public {\r\n        uint256 patientId = patientIds[_code];\r\n        require(patientId != 0, \"Patient not found\");\r\n\r\n        patientsList[patientId].temperature = _temperature;\r\n    }\r\n\r\n\r\n\r\n}\r\n\r\n\r\n\r\n",
  "sourcePath": "C:\\Users\\ASUS\\PFA6.0\\Model\\Blockchain\\contracts\\ValidatePatient.sol",
  "compiler": {
    "name": "solc",
    "version": "0.8.11+commit.d7f03943.Emscripten.clang"
  },
  "schemaVersion": "3.4.4",
  "updatedAt": "2024-04-21T09:33:04.667Z",
  "devdoc": {
    "kind": "dev",
    "methods": {},
    "version": 1
  },
  "userdoc": {
    "kind": "user",
    "methods": {},
    "version": 1
  }
}